:020000040000FA
:10000000434332367832523117E5C3800301F7FF9C
:10001000FFFF0700FFFFFFFFD07F0400A8000000E4
:1000200030303031CF7F04002C00FFFF01F7FFFF9D
:10003000A47F040000000000FFFFFFFFFFFFFFFFA1
:10004000FFFFFFFFFFFFFFFFFFFFFFFFFFFFFFFFC0
:10005000FFFFFFFFFFFFFFFFFFFFFFFFFFFFFFFFB0
:10006000FFFFFFFFFFFFFFFFFFFFFFFFFFFFFFFFA0
:10007000FFFFFFFFFFFFFFFFFFFFFFFFFFFFFFFF90
:10008000FFFFFFFFFFFFFFFFFFFFFFFFFFFFFFFF80
:10009000FFFFFFFFFFFFFFFFFFFFFFFFFFFFFFFF70
:1000A000FFFFFFFFFFFFFFFF00400120CD780400AE
:1000B00039FB021039FB021039FB021039FB021028
:1000C00039FB021039FB021039FB021039FB021018
:1000D00039FB021039FB021039FB021039FB021008
:1000E00011FB0210FFFFFFFFFFFFFFFFFFFFFFFFFE
:1000F000FFFFFFFFFFFFFFFFFFFFFFFFFFFFFFFF10
:10010000FFFFFFFFFFFFFFFFFFFFFFFFFFFFFFFFFF
:10011000FFFFFFFFFFFFFFFFFFFFFFFFFFFFFFFFEF
:10012000FFFFFFFFFFFFFFFFFFFFFFFFFFFFFFFFDF
:1010000001000000000000000000000000000000DF
:10101000FFFFFFFFCC2E00200400000000000000B6
:10102000000000001400000064160000180000001A
:10103000D0140000C0100000382E00200400000072
:101040000000000000000000240000005015000017
:10105000180000001DD9030008000000B0110000B6
:1010600074100000C1C8021001BB021091EB021005
:10107000DDE5021081E00210B9E5021071E5021011
:101080003100000001000000010000007C1600009B
:1010900000000000FFFFFFFFA42E0020040000005E
:1010A0000000000000000000280000003C160000C6
:1010B000240000001E0000001800000000000000D6
:1010C00028130000D41000009BEC021025E202104F
:1010D00005EB021025DE0210FDE10210E1E4021032
:1010E0002F00000034000000240028000000000051
:1010F000182E0020FFFFFFFFEC2E00200400000050
:10110000000000000000000038000000F0160000A1
:101110002800000001000000100000000000000096
:1011200000000000F7F1021000001A00100000009B
:1011300004000000541700002A4D030008000000BE
:1011400036000000AC2E0020F42E002009001D0007
:10115000EFCE0200402E002001000000000012002F
:10116000FFFFFFFFDC2E0020040000000000000055
:101170000000000010000000B4160000180000007D
:101180000000000000001300FFFFFFFF542F0020AD
:1011900004000000000000000000000054000000F7
:1011A000181700003C000000000001002D000000A6
:1011B000041000006FF30200300000000000000087
:1011C000B0110000D8110000D1520400D9DB021088
:1011D00059EC0210CDD6021085DE02104DE502104A
:1011E00029E5021030000000000016000000000099
:1011F00000000000FF7F00005C2F0020FFFFFFFFCA
:10120000D42E0020040000000000000000000000B8
:1012100058000000801600003400000039FB021066
:1012200001002F0006000000000000002000000068
:10123000010000001BF80210280000002813000025
:101240005012000093EC02106DEB02104DEC0210F6
:1012500029E00210BDE4021099E402102D00000004
:1012600000000000802E00200400000000000000AC
:101270000000000010000000681500002C000000B5
:10128000000000000000030000000F003C00000010
:1012900000000000000000002FF902101000000004
:1012A0000800000064170000FFFFFFFFE42E00208D
:1012B0000400000000000000000000001C0000000E
:1012C000CC160000240000003C120000302E00204C
:1012D0000400000000000000000000000C000000FE
:1012E000D814000018000000434103000000000073
:1012F00000000000080000000100000004000000E1
:101300000000000000001400000000008434000011
:10131000000019000000180024000000057A0400F5
:101320000040000000020000041000000000100057
:1013300055F002100C00000053D90300000000001B
:10134000102E00200400000000000000000000003B
:1013500020000000A0140000300000009C340000B9
:101360000100000013DA030023E202000000000085
:101370000000170000020000310000000000230000
:101380000000150001000000C01100009C2E00208C
:101390000400000000000000000000002000000029
:1013A0001816000024000000F8DB0300902E002037
:1013B0002000000078170000FFFFFFFFFFFFFFFF86
:1013C00095D80300A7DA0300ABDA0300AFDA030015
:1013D000B3DA0300B7DA0300BBDA0300A15104005B
:1013E000555204005D510400A17904008379040082
:1013F0002D52040039520400D379040089520400AC
:10140000095404001D5404000128000000000000DD
:10141000000000000001003000000000000000009B
:101420000003FF186400000000000000000000003E
:101430007856341200000000BAAB00000000000132
:10144000000000000000000000008001100080FF8C
:10145000FDFF58003AFFBBF3FFFFFFFFFFFFFFFF59
:10146000FFFFFFFFFFFFFFFFFFFFFFFFFFFFFFFF8C
:10147000FFFFFFFFFFFFFFFFFFFFFFC5FFFFFFFFB6
:1014800000FFFFFF00C5C5FF000000FF00000000D7
:10149000FFFFFFFFFFFFFFFFFFFFFFFFFFFFFFFF5C
:1014A000300000000000000000000000C814000030
:1014B000040000000000000001000000FFFFFFFF2B
:1014C000FF00000001000000080000000000000014
:1014D00000000000000000001800000000000000F4
:1014E00000000000E81400000800000000000000F8
:1014F000100000002813000008150000FD7904000A
:10150000A1DC030029DC0300DDDA030031DB03008A
:10151000C1DA03002E000000F4140000782E002031
:101520000400000000000000000000002000000097
:10153000381500001800000018000000000000002E
:101540000000000048150000080000000000000036
:1015500018000000000000000000000060150000FE
:1015600008000000000000002C0000000000000047
:10157000000000008C1500000400000000000000C6
:1015800001000000FFFFFFFFFFFFFFFF080000005A
:1015900000000000B0110000AC150000D1530400A1
:1015A000E1530400FD530400F153040073DB030016
:1015B0009DDB030051DB03003200000094150000A6
:1015C000882E002004000000000000000000000041
:1015D00014000000DC1500001C0000001C000000CE
:1015E0000000000000000000F015000000000000F6
:1015F0000800000000000000010000005F60000023
:10160000017A0400D3A90200636000006760000053
:101610005360000071600000240000000000000022
:101620000000000034160000000000000000000070
:10163000000000000800000000000000240000007E
:10164000000000000000000058160000000000002C
:101650000000000000000000080000000000000082
:101660000A00000018000000000000000000000058
:10167000741600000800000000000000316900003E
:10168000340000000000000000000000AC16000064
:101690000000000000000000010000000000000049
:1016A0000100000000000000000000000800000031
:1016B0000000000018000000000000000000000012
:1016C000C416000008000000000000002400000014
:1016D0000000000000000000E8160000000000000C
:1016E00001000000000000000800000000000000F1
:1016F000280000000000000000000000101700009B
:101700000000000000000000FFFFFFFF00000000DD
:1017100008000000000000003C0000000000000085
:10172000000000004C170000000000000000000056
:1017300001000000000000000000000000000000A8
:101740000000000001000000000000000800000090
:10175000000000008DDA030025DD02103551040081
:1017600075DF021001000000000000000000000012
:10177000000001000000010015F9021001E602104E
:101780002DDA021045E7021041D10210C9D3021030
:10179000A5DF02102DE4021061EA02108D5304004F
:1017A00005000600080009001600020102020302FB
:1017B000000301030105020500060106040B1406DF
:1017C00015061706000701070207030700090409A9
:1017D00007000A000C000D000E000F0010001100A1
:1017E0001200130014001B0000010101000201029D
:1017F00002040004010403040404050406040005B3
:10180000020603060406050606060706080609067C
:101810000A060B060C060D060E060F06100611062C
:101820001206130604070009000B010B020B030B41
:1018300053554E004D4F4E005455450057454400FA
:10184000544855004652490053415400464F4F00FA
:101850004A414E00464542004D415200415052001F
:101860004D4159004A554E004A554C0041554700DC
:10187000534550004F4354004E4F560044454300DB
:101880004C180000501800005418000058180000B0
:101890005C18000060180000641800006818000060
:1018A0006C18000070180000741800007818000010
:1018B0007C1800000097B92EE5725CCB5DCAE4731A
:1018C000B82F0196BA2D03945FC8E671E7705EC920
:1018D0000295BB2CE3745ACD0691BF28BE29079010
:1018E0005BCCE27559CEE077BC2B05920493BD2A00
:1018F000E17658CF51C6E87FB4230D9A0C9BB522F0
:10190000E97E50C7EB7C52C50E99B720B6210F98DF
:1019100053C4EA7DB2250B9C57C0EE79EF7856C1CF
:101920000A9DB324089FB126ED7A54C355C2EC7BBF
:10193000B027099EA2351B8C47D0FE69FF6846D1AF
:101940001A8DA334188FA136FD6A44D345D2FC6B9F
:10195000A037198E41D6F86FA4331D8A1C8BA5328F
:10196000F96E40D7FB6C42D51E89A730A6311F887F
:1019700043D4FA6DF3644ADD1681AF38AE3917806F
:101980004BDCF26549DEF067AC3B15821483AD3A5F
:10199000F16648DF1087A93EF5624CDB4DDAF4634F
:1019A000A83F1186AA3D13844FD8F661F7604ED93F
:1019B0001285AB3C510010000000005500100000E3
:1019C0000000670018000000006F00180000000011
:1019D000040042000000004300230000000000005B
:1019E00021000000100020819E3100202100000015
:1019F000110043810000000021000000120020833C
:101A00009F3100202100000013002083A03100201E
:101A10002100000014002083A131002021000000DB
:101A2000150043819C8A00202100000016001A81C5
:101A30000C1C00202100000017001A81101C00203F
:101A40002100000020001843A231002021000000E6
:101A50002100F143141C0020210000002200F1436A
:101A6000241C002021000000FDFF214188310020BE
:101A7000548A0020348200200C8900201483002026
:101A800000000000848600205C8A0020E48600209C
:101A90001C8900204084002074350000AC35000013
:101AA000BC350000C8350000D83500002C89002066
:101AB0009C8B0020A08B0020A48B00205C31002098
:101AC000A88B0020AC8B0020B08B0020B48B0020B2
:101AD000B88B00203C890020A882002010880020BC
:101AE0006C840020E83500005C360000D036000031
:101AF00044370000B83700002C380000443800009C
:101B000050380000F88C0020D0890020603100207F
:101B10000087002080850020F98C0020FA8C0020AE
:101B2000E083002024880020E87D0020FB8C00203A
:101B300010210000982100000000000000000000BB
:101B40005C380000EC7B0020BC8B0020C08B0020A8
:101B50007431002078310020C48B00206C380000E4
:101B600080870020547E002000000000000000005C
:101B7000481C0020000000000000000000000000E1
:101B8000000000004883002088750020A88A0020FB
:101B9000014A031049480310D549031015470310A3
:101BA0003F3E04005D49031081470310A146031026
:101BB0009548031045450310254A0310214403109E
:101BC000ED47031099490310E14803102149031020
:101BD0005553031089520310CD5203106550031062
:101BE0008D4E0310D9330400C33404004137040080
:101BF0000000000059510310ED500310E1380400BB
:101C0000CD4B03102952031011530310A955031093
:101C10007555031069530310DD5503103555031036
:101C20009346040021540310855C03100D560310E5
:101C30004D5D0310A9640310B55B03106D570310CD
:101C4000E5610310095E0310C55803108560031099
:101C500071610310B162031099630310556303109F
:101C6000FD600310B15E03105D3D0400D55A031002
:101C7000D559031009630310D963031019640310C5
:101C8000555F0310C56403104D62031071640310A7
:101C90008D64031055640310E1640310297503106B
:101CA00079720310A16B0310F57203109D74031079
:101CB000797403102D74031061730310FD73031006
:101CC0005574031015750310D96C0310FD740310BF
:101CD00059440400E17403103D750310C14504002C
:101CE000F9640310CD6803102D710310C174031043
:101CF000F56E0310B973031029670310056E031006
:101D0000C56F03106D470400A1770310797D0310A0
:101D10003D7E031049750310157E0310357D0310B9
:101D200099760310997C0310257B031071780310BA
:101D3000B57D0310ED7C0310857E03102D79031013
:101D4000B97A0310917B0310B1790310ED7B031076
:101D5000E97D0310617E0310357A0310D57E0310F0
:101D6000457C0310A57E0310BD7E0310973204004E
:101D7000D9800310E97E031049830310898403107E
:101D80008D8103107D820310E58403102B840310E2
:101D9000C5830310918703106188031045880310E1
:101DA000F1850310B18803107D880310C9880310E2
:101DB0001D870310A186031001850310E18803101D
:101DC00099880310F98703102F430400359C0310F2
:101DD000819D0310E99A0310359B0310C19B0310EA
:101DE000419A0310F18803101D8C0310618F0310BA
:101DF000F1940310919E0310C19E03103D9E0310A9
:101E0000699E0310259E0310619D03100D9E031013
:101E1000819B0310ED93031055990310C99703108C
:101E2000D9980310BD950310959C0310C19D031014
:101E3000A59E03107D9E0310C9910310A1420400CA
:101E4000699C0310DD9D031095900310FD9B03100A
:101E5000CD990310158E0310019D0310E19C031012
:101E6000219D0310419D0310BD9C0310F59D03109F
:101E7000A19D031055980310E1920310999A031045
:101E8000B99E0310559E0310C13004000F310400A9
:101E900039A203103331040069A1031075A20310A5
:101EA000C59E0310B9A10310F9A1031015A10310D9
:101EB0009DA2031021480400294804002B48040077
:101EC000694804007D4804008348040031A90310D8
:101ED000ADA20310793B0400B9A8031099A5031023
:101EE0007336040039A803106DA90310813504006E
:101EF0006DAC031099B1031009AF031059B1031071
:101F000001B103109DA90310093F040075350400B9
:101F10007D3504000D3F0400113F040079350400B5
:101F2000153F0400193F04001D3F0400213F040039
:101F3000253F0400F1B9031075BA031081BB0310EB
:101F4000594A0400914A0400714B0400114C0400EA
:101F5000FB4C0400394D0400BF4D0400ED4D04005E
:101F60004D4E0400814E0400A34E0400C14E0400F7
:101F7000234F04006F4F0400774F0400B14F04005B
:101F8000335004004B500400D55004005535040074
:101F9000013F0400053F0400293F040041410400C3
:101FA000E9C60310FD3E0400C92D04005D300400A5
:101FB00069970000039800009D9700004F8603007A
:101FC000D5BB020059300400573104005B310400D6
:101FD0005D310400F3310400716500008765000085
:101FE0006D6500006F6500003D650000097A040022
:101FF000157A0400A3600000CB60000015630000A8
:10200000A9620000D7620000A96300009563000088
:102010008D610000E9600000D5630000DF61000011
:10202000DBFD021039450100B56800005164000075
:102030002F650000A5360100CB360100FD360100FA
:10204000DF360100D2310020FF8C0020008D0020FF
:10205000FE8C0020018D0020028D0020D331002055
:10206000EBC202009FF302008D3603006BE2020018
:10207000DBE20200E93703005538030045E30200C4
:1020800093E2020047E2020007E302001936030070
:1020900011360300E58E0100B98E0100A74A030046
:1020A000E93503004F3603005D3603006B3603004D
:1020B000038D0100C38A0100C18D01007F8E0100E4
:1020C000E14904005B370300514A03005D4A030005
:1020D00000000000E13A03000F360300213A03003C
:1020E000B33A0300000000005FC302002DF00200BD
:1020F000FBF60200F18C010000000000000000006F
:10210000B5FB020085340300898D0100694A030094
:10211000360001000600000000000000000F000073
:1021200000000000000000000000000000000300AC
:10213000FFFF00000403FFFF0000FFFF0F00E803A4
:102140000005401F0310000100000000FF3F0F00CA
:102150000800050B00000000000000000300010F54
:10216000000000000000000000000000000000006F
:10217000000000000000000000000000000000005F
:10218000000000000000000000000000000000004F
:10219000AD00000200000000000136360101000120
:1021A0000201000103010001040106060804000009
:1021B0000C0100340D01000F10040101140100FF97
:1021C0001608000020020000220100FF2301000188
:1021D000240100FE2501000826020000280100015C
:1021E000290100012A0200002C01000F2E0200002C
:1021F0003001000131010008320200FF3401000704
:10220000350102FF360100003701000138010001ED
:10221000390100FF3A01000F3C0200FF3E01010FAF
:102220003F0100014001041F41010001420100FF84
:1022300043010080440800004E0100084F01000FD8
:1022400050010001510100FF520100005301000044
:1022500054010001580400005C0400006004000008
:1022600064040000680400006C04000070040000B6
:1022700074040000780400007C040000800100FF6A
:102280008101000182010001830102028401000139
:10229000E324030095270300000000000000000075
:1022A00000000000652D0300832D0300C92C0300EE
:1022B0009D2D0300CD2D0300D32D0300A52F03007A
:1022C000000000009B2F0300B5300300E728030047
:1022D000D92D0300F92D0300892E030031310300AD
:1022E0006F290300353303001133030000000000A1
:1022F000B133030055290300593203002DD50200E4
:102300004BD4020087D5020039D4020059D4020010
:10231000EFD60200F3D60200633E0300A53D0300A2
:10232000DD3E0300853D0300973D0300333F03007E
:10233000373F0300C9850100D5850100EC2C002042
:102340009C2C0020C8300000E0300000F830000075
:1023500008140000103100003031000000000000BF
:102360005054564F5349474E3180818485000000B8
:10237000000000000000000000000000000000005D
:10238000000000000000000000000000000000004D
:10239000000000000086C0004C4C4C4C00000000C7
:1023A000000000000000000000000000000000002D
:1023B00000000000000000000A00000103050709FA
:1023C0000B0D0F00020406080A0C0DBFFB08696E16
:1023D00076656E74776F202020202020202008430F
:1023E000432E444854323220202020202020200038
:1023F00020202020202020202020202020202020DD
:102400000A323032352D30322D31390103000300CC
:1024100000030003000003000300000300030000AA
:1024200000000000000000000000000000000000AC
:10243000000000000000000000000000000000009C
:10244000000000000000000000000000000000008C
:10245000000000000000000000000000000000007C
:10246000000000000000000000000000000000006C
:10247000000000000000000000000000000000005C
:10248000000000000000000000000000000000004C
:10249000000000000000000000000000000000003C
:1024A000000000000000000000000000000000002C
:1024B000000000000000000000000000000000001C
:1024C000000000000000000000000000000000000C
:1024D00000000000000000000000000000000000FC
:1024E00000000000000000000000000000000000EC
:1024F00000000000000000000000000007000000D5
:1025000000000000000000000000000000000000CB
:1025100000000000000000000000000000000000BB
:102520005054564F5349474E32000000025768003E
:1025300002487A000270660002506100036B670077
:10254000026C78000370706D056D63706D30000073
:10255000056E63706D300000057073697A65000068
:10256000034552520173000000000000000000000B
:102570000000000001200000C53E00000001000036
:1025800002200000C53E0000000100000320000002
:10259000C53E00000100000004200000C53E000010
:1025A000000100000500000035F7000000000000F9
:1025B000060000000000000000000000070000000E
:1025C00033A00100000000000800000047040400E0
:1025D00000000000000000000000000000000000FB
:1025E0000A00000000000000000000000B200000B6
:1025F00055020400100000000C02000055520300B8
:10260000000000000D0000000000000000000000BD
:102610000E200000C53E0000100100000F20000049
:10262000C53E000010000000000000000000000097
:10263000000000000000000000000000000000009A
:102640000000000000000000000000001300000077
:102650009B98010000000000000000000000000046
:10266000000000001500000083EE030041000000A0
:102670001600000083EE0300500000001701000068
:102680009B9801000000000018010000456D030048
:102690005000000019000000ED770100000000006C
:1026A0001A000000ED770100000000001B00000090
:1026B0008F120400100000001C010000A98103001B
:1026C000000100001D010000A981030000010000BD
:1026D0001E000000D1060400100300001F010000CE
:1026E000B74E03000800000020000000B3060200FF
:1026F0000000000021000000D19501000000000052
:102700002200000039F40300100000002300000044
:10271000555203000000000000000000000000000F
:1027200000000000000000000000000000000000A9
:102730002601000021F9030010000000271100000D
:10274000512A04001000000028090000C3F503000E
:102750000000000029000000F92004001000000023
:102760002A600000E57B0300000300002B2200002C
:1027700055020400100000002C0000005924040041
:10278000100000002D020000592404001000000079
:102790002E010000C1770300000400002F0000009C
:1027A000C57203000008000030000000ED070400BF
:1027B00010000000310100000000000000000000D7
:1027C0003201000043E40300100000003301000068
:1027D000930F0400430000003400000000000000DC
:1027E00000000000350000000000000000000000B4
:1027F000360000000000000000000000371100005B
:102800002D7F03001000000038320000EB2C040084
:102810000000000039010000A98103000001000050
:102820003A000000E9A70100000000003B000000A2
:1028300069FE0300130000003C00000000000000DF
:10284000000000003D00000000000000000000004B
:1028500002040504030400040C000C040D042A0403
:10286000040B02070A0011005054564F5349474EBB
:1028700033BFFB070019022520E15D482F06FFFF4B
:10288000FFFF0000000000000000000000005054A6
:10289000564F5349474E34004F4144204E564D3118
:1028A0000000000000000000000000000000000028
:1028B0000000000000000000000000000000000018
:1028C0000000000000000000000000000000000008
:1028D0005054564F5349474E370000000000000047
:1028E00000000000000000000000000000000000E8
:1028F00000000000000000000000000000000000D8
:1029000000000000000000000000000000000000C7
:1029100000000000000000000000000000000000B7
:1029200000000000000000000000000000000000A7
:102930000000000000000000000000000000000097
:102940000000000000000000000000000000000087
:102950000000000000000000000000000000000077
:102960000000000000000000000000000000000067
:102970000000000000000000000000000000000057
:102980000000000000000000000000000000000047
:102990000000000000000000000000000000000037
:1029A0000000000000000000000000005054564FDE
:1029B0005349474E3800000000000000000020018D
:1029C00091680300000000000100200191680300ED
:1029D00000000000020020019268030000000000D7
:1029E000030020018F630300000000000400420187
:1029F000CD2300000000000005004201DE2300009E
:102A00000000000006004201002400000000000059
:102A1000070020010B24000000000000100042010C
:102A2000EF2300000000000011002001C58C0020F1
:102A300000000000004042010024000000000000EF
:102A400000804201D928000003000000000021039B
:102A5000988C00200600000000001011000000000B
:102A600007000000000030330000000007000000F5
:102A70001000303300000000070000000140203348
:102A800000000000070000000240203300000000AA
:102A90000800000000002033000000000A000000D1
:102AA0000000E233000000000A00000001001833BB
:102AB000000000000C000000550039330000000049
:102AC0000C0000001C004233000000001100000058
:102AD00004004233000000001100000043002333D3
:102AE0000000000011000000510010110000000063
:102AF000110000005500101100000000110000003E
:102B00006700181100000000110000006F0018118C
:102B1000000000001200000055002101000000002C
:102B2000140000000E004222000000001900000006
:102B30000000F0816C2900201900000001002381B1
:102B4000742900201900000002002301A08A00203F
:102B500019000000030021818A31002019000000C3
:102B6000040023817829002019000000050021813C
:102B70008C3100201900000006003081C38C002039
:102B80001900000007002101948C002019000000AA
:102B900008002101928C0020190000000900218109
:102BA000908C002019000000FDFF2181965E00003E
:102BB00000040000000021040000000002040000E6
:102BC00000002904000000000304000000002904A4
:102BD00000000000050400000000290400000000BF
:102BE0000C04000000003904000000000D04000087
:102BF00000003904000000002A040000000039042D
:102C0000000000000207000000002904000000008E
:102C100002070000000218053369030002070000E4
:102C20000003300500000000020700000103220538
:102C3000902D00000207000002032205942D0000E1
:102C400002070000030318013269030002070000B5
:102C50000603180100000000040B000000001B0523
:102C60008C2D0000040B000000012905000000006D
:102C7000040B00000301290500000000040B000004
:102C80000601290400000000040B000000022105D9
:102C9000BA730000040B0000010221052274000039
:102CA000040B000002022105BA730000040B0000AF
:102CB000030221052A740000040B00000402210510
:102CC000BA730000040B000005022105369E0000C7
:102CD000040B00000003210400000000040B0000AE
:102CE00000042105BA730000040B00000104210553
:102CF00032F70000040B000005052105000000006C
:102D0000040B00000805210500000000040B000072
:102D10000B05290400000000040B00001005280426
:102D200000000000040B000000062105BA7300003B
:102D3000040B00000106210522740000040B0000B2
:102D400002062105BA730000040B000003062105EA
:102D50002A740000040B000004062105BA73000069
:102D6000040B0000050621055E970000050B00001E
:102D7000010021020000000001000401FEFF00002C
:102D80000000000000000000000000002100000022
:102D900001000000E80300000000C8420A00000033
:102DA0000200000004000000080000001000000005
:102DB0002000000040000000800000000001000032
:102DC00000020000000400000008000000100000E5
:102DD0000020000000400000E8030000881300000D
:102DE000D0D1D2D3D4D5D6D7D8D9DADBDCDDDEDF6B
:102DF00000000000000000000000000000000000D3
:102E00005A6967426565416C6C69616E636530390A
:102E10006A0078003B1C04007B1C04008B1C04002F
:102E20006C00F000DD7804001B7904002B790400AD
:102E30006B00F000A11B0400DF1B04008B1C0400CE
:102E40006600F000A11B0400DF1B04008B1C0400C3
:102E500067001400331E0400611E0400731E04008A
:102E600069001400F11E0400A11F0400211F0400CA
:102E7000EE28E80365130400971604008914040083
:102E80006F006400C91F04002F20040061200400AB
:102E900068000A00351D0400ED1D04006D1D0400CE
:102EA0006D0004003D19040091190400411A04004A
:102EB000640001000000000000000000FF16040094
:102EC000630001000000000000000000FF16040085
:102ED000620001000000000000000000FF16040076
:102EE000610001000000000000000000FF16040067
:102EF000700001000000000000000000FF16040048
:102F0000F0380000FC870020142B0020F03800006F
:102F1000FE870020202B0020F038000000880020D1
:102F20002C2B0020F038000002880020382B0020D5
:102F3000F038000004880020442B0020F038000006
:102F400006880020502B0020F03800000888002060
:102F50005C2B0020F03800000A880020682B00203D
:102F6000F03800000C880020742B002068870020B7
:102F7000517B040098840020527B04000000024032
:102F80000929FF00048600207C2F00000020050096
:102F9000004000000C390000C88C00208C2F00007D
:102FA00034390000AC890020902B00205C390000EF
:102FB000387A0020B82B00205C390000587A0020B5
:102FC000BA2B00205C390000787A0020BC2B00204E
:102FD0005C390000987A0020BE2B00205C3900008C
:102FE000B87A0020C02B00200000000015910000DE
:102FF000AD6E00000101010000000000FF000100B3
:103000000000000000000000803900004C15002086
:10301000C42B0020803900004C160020042C002016
:10302000FF0000000000000080A90300747C002065
:1030300020300000D86A0020442C00200000084006
:10304000E803000098390000C08400203C300000F4
:10305000000001401FFF00001700000000100140A9
:1030600021FF0100190000000020014023FF0200A1
:103070001B0000000030014025FF03001D00000080
:103080000000014020FF000018000000886E0020B2
:103090005030000000000000D46E00205C300000C2
:1030A00000000000206F00206830000000000000D9
:1030B0006C6F00207430000000000000B86F00202A
:1030C0008030000001000000020800000000000045
:1030D000000000000001010000005328FC2C00202B
:1030E0000308000000000000000000000001650966
:1030F0000000000000000000012C000000000000A3
:10310000000000000001001E0000000000000000A0
:10311000022C000000000000000000000000000081
:10312000000000000000000000000000000000009F
:10313000032C000000000000000000000000000060
:10314000000000000000000000000000000000007F
:1031500000000000000000000100000000C20100AB
:1031600003000000000000002FD70000C1DB0000BA
:1031700073D70000FD4D000021D800009FDC000047
:1031800021D80000F7DD0000CBD80000FD4D000085
:1031900021D800009FDC00002FD90000FD4D000069
:1031A000000000000000000069DA0000FD4D000092
:1031B000000000000000000000000000000000000F
:1031C000B5DA0000FD4D0000B9DA0000F9DF0000BB
:1031D000D5DA0000FD4D00000000000000000000F6
:1031E00000000000000000000000000000000000DF
:1031F00017DB00004DE100002DDB0000FD4D00005D
:1032000017DB00004DE100002DDB0000FD4D00004C
:10321000B9DA0000F9DF00005DDB0000FD4D0000C1
:1032200013000000C18702001F0000005389020044
:103230001F800000338A02000000000047BB00002E
:103240000100000047BB000002000000897C020072
:1032500002800000877C020003000000A77C0200BF
:1032600004000000ED7C020004800000517D02009B
:1032700005000000537D020006000000CB7D020027
:10328000300000006F8302003100000071810200F5
:1032900032000000B9840200330000005F850200A4
:1032A000340000000586020036000000838602001C
:1032B00011000000C18602001400000031870200E6
:1032C0001500000041810200FFFF00000000000027
:1032D0008F000100C731002087000100DC2D002095
:1032E000350028001085002028000100AA310020A8
:1032F00029000100AB31002084000400D88A00209E
:10330000860001007D1B00202A000100AC31002056
:103310002B000100AD3100202C000100B131002054
:103320002D000800E02D00202E000100B231002009
:103330002F000100B331002030000100B431002023
:1033400032000100D68C002033000100D78C002011
:1033500034000100B531002036000100D88C002077
:1033600038000100B631002039000100B0310020E2
:10337000830002009A31002063000100DB8C0020F2
:1033800065000100AE3100206D000100DC8C0020E2
:10339000710008002C8A002066000100C531002061
:1033A00043000100C03100204400020090310020A1
:1033B00045000100C131002046000200923100208A
:1033C00047000800348A002048000100C231002074
:1033D0004B000100C331002004000100C631002071
:1033E000A1000100CD31002037000100CB310020C9
:1033F00088000100C83100203C000100B7310020E6
:103400003D000100B8310020490002009431002045
:1034100067000100DD8C00204D0002009631002085
:103420004E000100C43100204F00020098310020FE
:103430003E000100BE31002051000100BA310020E1
:1034400052000100BB31002053000100BD310020BB
:1034500054000100D98C0020000000000000000092
:1034600019980000C5420200F993020095AA0200D3
:103470006FA303007B5C010023A40300B1FE0100E5
:10348000C1A803007B7374617469632D696E7374E2
:10349000616E63652D6E616D657D00007B656D708D
:1034A00074792D696E7374616E63652D6E616D65DF
:1034B0007D000000902E0020FFFFFFFFFFFFFFFFB9
:1034C000010000009954020006000000C15D0200E6
:1034D000080000002D5D02000B000000695E020084
:1034E00010000000E522020002000000AD570200BB
:1034F00005000000D15A02000700000089580200B0
:103500000C000000EF4802000D000000814C02009A
:103510006400000057E40100FF000000000000000C
:103520008E0000008E0001008E0002008E0003005D
:103530008F0000018F0000028F0000038E00010445
:103540008E0000058E0008048E000004890000062D
:10355000500000007F0001003F0004003F00020017
:103560003F0001007F0002008E0002048E00010275
:103570008E000101000000000200000002000000B7
:103580000A0000000200000002000100000000002C
:10359000000000000000000000000000000000002B
:1035A00000000000000000000E00000000A6AAAC11
:1035B000A4A9A9A399B19ABCB6A80000020402016B
:1035C0000101010902000000313117191A21241BE1
:1035D0001D1F313133310000313118191A22311CCD
:1035E0001E203131343100000300710030016000D1
:1035F0001100700031022003500480000700100009
:103600006100000014006300730072006200430058
:10361000000013000600000000000400120000007B
:1036200000000000000004000400370037003C02E6
:1036300044000000000000000000650000003500AC
:10364000810000000500000083000000660000000B
:103650000000080009000A000B00000001017101D0
:10366000010101011101010131010101010180018B
:103670000001100161013B0014006301730172013C
:10368000620143010001130106013D0135000401FF
:1036900012010001000100010001040104013301D5
:1036A00033013C0144013201360000010001650193
:1036B0000001350081010001050182018301000143
:1036C000660100010001080109010A010B01000067
:1036D0000302710230016002110270020102020253
:1036E000020280020002100261023A0041006302FD
:1036F00073027202620243020002130238000002E7
:10370000000204021202000200020002000204028F
:103710000402370037003C02440200023900000274
:1037200000026502000235028102000205028202E7
:1037300083020002660200020002080209020A0275
:103740000B020000010371030103010301030103E4
:10375000010322030203010300031003000300031B
:1037600000030003000300030003420300032403DB
:1037700006030003000304031203250323032503A8
:1037800023030403040300030003000344030003B2
:1037900000032303000365032100350381030003B5
:1037A00005030003000300030003250323030803AC
:1037B00009030A030B0300000304710402046004FC
:1037C0001104700402040204010402040004100441
:1037D0006104000414046304730472046204430467
:1037E000000413040604000400040404120400048A
:1037F00000040004000451046400000400040004F8
:1038000044040004000400040004650400043504BA
:1038100081046400050400048304000466040004B9
:103820000004080409040A040B0400000000050059
:10383000BD00B700B100BC001C003000380008001B
:1038400038010200000120181A18182C34041E0038
:103850000C0E020B040B0A070800110F88B224009B
:10386000881300001000000000000001C0030000E9
:1038700080070000000F0000001E0000003C000058
:103880000078000000F0000000E0010000C003002C
:103890000080070000000F0000001E0000003C0038
:1038A000000078000000F0000000F00000000000C0
:1038B0000000000000000000000000000000000008
:1038C00000000000000000000000000000000000F8
:1038D0000000000000BE040A00BE0208303132338E
:1038E000343536373839616263646566000000003C
:1038F00069540400A1540400A75404008355040033
:103900006F560400C9560400D15604006D570400D8
:10391000755704007B570400AB570400C5570400DB
:10392000135804002B5804009F580400DD5804006D
:10393000E5580400755B0400095C04007F5C04002A
:10394000AF5C0400C15C0400F75C04000F5D040080
:10395000355E0400795E0400855E0400BD660400E7
:10396000D76604000D6404000F6404000D650400B4
:10397000B5640400516504009D660400816604007E
:10398000056A04007B6A04006F6D0400796D040011
:10399000516F040071720400A9760400B17604002E
:1039A000B3760400B9760400C176040051770400B0
:1039B000797704005D400021894000219540002175
:1039C0003B410021074C657900F009F861796940B5
:1039D000490703D50121044A8903116070BD70B500
:1039E0000249084780030021081104402D590000B6
:1039F00000F00AF800480047577F000000F00AF87E
:103A0000004800471B880000806B0C490007000F2E
:103A100048717047094A0A4918235079CB56497EA4
:103A2000C018814201DD084602E00F2800DD0F20AA
:103A3000D189090909010143D1817047E0020021C0
:103A4000880000210122274B02212548184710B584
:103A5000254880472548406A00280DD124490A207E
:103A60000856002809DA401C07D008462038406A6A
:103A70002049884200D1804710BDFFF7E3FF10BD09
:103A800000211E4B1C4A0846184701201C494002D1
:103A900008601C48FB220178114001701248EC3884
:103AA000004710B51849884711492039012807D027
:103AB000020404D50020088514484862012010BD86
:103AC0004A6A094BEC3B9A4201D1114A05E0074989
:103AD0004A6A104B9A42F2D10F4A4A6210BD000066
:103AE000060800009F060000A192020008010021C4
:103AF0005401002163920200E7400021B5B40200A6
:103B000080E100E080030021F7960200DD40002103
:103B1000234100216995020019410021010200039F
:103B2000020001032200000000002115110E0D0CFF
:103B30000B0B0A0A090909090908080808080808F6
:103B4000070707070707070707070707070000001A
:103B50003031323334353637383961626364656603
:103B60006768696A6B6C6D6E6F707172737475766D
:103B70007778797A0000000070B504466569E678C8
:103B8000802000F0D1FA0A220321304600F016FB13
:103B900001462980207A40F0040020726078BDE858
:103BA000704000F0C4BC00002DE9F04704462DED44
:103BB000028B257805F07F050E2D40F08680207A57
:103BC000D4F814A0010712D5DFF8A4240009117855
:103BD0000123834019420AD1DFF898140144487A3E
:103BE00028B12046FFF7C8FF9FEDB50ABEE0BAF83E
:103BF000029094F80380802000F096FA207A47081B
:103C000007F0010787F0010700250026BF024007E3
:103C100048BFBAF900709AF804C000EE10CAB8EEB6
:103C2000400A10EE100A00F089FCDFF84C24DFF89F
:103C30004C3400F0A7FC00F07BFD08EE100A00F009
:103C400099F800F097F800F0DAFD824612E0381A91
:103C500000B200280BD5404200B208E000F08AF81C
:103C6000217A8A0700B2F2D5B842B8BF002010FB13
:103C70000055761C00F0C3FDA0EB0A004845EDD3CB
:103C8000002E9FED8F0A71D0B5FBF6F000F0F2FD2B
:103C900041EC100B00F0FCFD53EC102B4FF06630A4
:103CA000DFF8DC1300F06EFC04460D4618EE100A37
:103CB00000F044FC02460B462046294600F06AFE0E
:103CC00000F036FD00EE100A50E0E678032D1CBF30
:103CD000042D012D01D1002000E0802000F024FA05
:103CE0000F2D14BF012200220321304600F01DFADF
:103CF0000F2D04D100EE100AB8EE400A36E000F0B5
:103D00006DFF032D41EC100B04D100F079FF00F0A2
:103D100065FF1BE0F9D0042D0FD153EC102BDFF819
:103D20006403DFF8641300F02DFC00F069FF00F07D
:103D300055FF0022DFF8543306E000F061FF00F089
:103D40004DFF0022DFF8483300F024FE00F0F0FCC5
:103D500000EE100A207AC10708D56069D0ED000A8C
:103D6000B0EE401A90ED010A01EE200ABDEC028B84
:103D7000BDE8F0870321404600F01DBAFEB50446B9
:103D80002C200899C34D44432819022904D10C2A38
:103D900015D1FFF7F1FE2CE000F108067788974275
:103DA00004BFB6889E420AD10B0006D10C2A0CBF74
:103DB000042102210A9801801BE0012901D0002082
:103DC000FEBDFFF7F1FE8DED000A295D099801F0B7
:103DD0007F01012918BF02290DD0032913D004291E
:103DE00009D00E291DD00F29E9D10422694601F01E
:103DF00024F80120FEBDA84900F019F81BB2019378
:103E0000022201A9F3E7A549D1ED000A60EE200ADC
:103E1000FDEEE00A10EE902AADF8042001A902227E
:103E2000E5E79F4900F003F8ADF80430E8E7DDED81
:103E3000000A0A8800EE102AB8EE400A60EE200A56
:103E4000FDEEE00A10EE903A704770B504462C2162
:103E50004C43904D2E192DED028B3046FFF7A4FEFA
:103E6000295D01F07F010329B0EE408A0DD18B4816
:103E700090ED000A707828EE000ABDEEC00A10EE40
:103E8000101A09B201F082FA15E0295D01F07F00F5
:103E90000F2806D1012000F0B1FA68B180ED018A47
:103EA0000AE001F07F0170780E2902D101F0CFFA0B
:103EB00001E001F096FA0020BDEC028B70BD00001D
:103EC000000000002DE9FE4F8046764F4D7976497F
:103ED00011F808A0504600F0FFF8814600F005F9FF
:103EE000002000F021F93A786A492C2042438C18CE
:103EF0006E4966696162012005F07F0584F828003B
:103F000040F6043161814FF48070032DA08106D109
:103F100040F202404FF00909608100213AE0042D8F
:103F200008BF4FF0080921D00421504601F0ECFBF6
:103F30000C2010FB09F05E4901F800A0012D1FD1F3
:103F400008445C4A42600021009101916A460121C7
:103F5000404600F02CFA01AA0221404600F027FA60
:103F60009DED000AB5EE400AF1EE10FA6CD0207A11
:103F700040F001002072009830600199716063E0A8
:103F800018BF022DDFD00E2D06D00F2D5CD10C20D6
:103F900060815521A18157E094F8280040F002008B
:103FA00084F828004FF4A161A1816A4666694248FD
:103FB0000090012194F801B0584600F0CAF99DF82C
:103FC000000000210C2805DA0FF2F4013FA2085C82
:103FD000115C49003071207A00F0FD00014321722C
:103FE0000098000A0090010614BF3C203220707136
:103FF0004FF47A70717990FBF1F171806A46022179
:10400000584600F0A6F900281CBF009800280AD0E6
:10401000207A40F00800207200F00F0000994A1E3C
:1040200040EA02102072002000906946584600F0D5
:104030007AFA48B100993180009800B10420217AC1
:1040400001F0FB010843207284F8018084F802A08B
:1040500084F803900021207800F08000054325704B
:10406000A1711648E0613978491C3970BDE8F78FB5
:10407000C18C00206023000038842A357BA0453F96
:1040800066665A3F9A9999999999B93F00005940A3
:1040900000408F406C71002022740000982D0000B9
:1040A0002A740000C28C0020FC8900207D3D0000A5
:1040B000142B0020308C11000132E6004B3E000032
:1040C000B96436203010200B1708100000000000E3
:1040D0000100010001000100A0F11701082902D22E
:1040E0001738C0B27047FF2070470C480178CA07E4
:1040F00000D5704710B541F001010170002008495A
:1041000005E0C3B20C246343FF22CA54401C054B94
:104110001C78C2B2A242F4D310BD0000C78C0020AC
:10412000142B0020507B04007047134601222DE918
:10413000FE430928044691461D4605D101F097FC2F
:1041400001F0C4FC80B234E05FEA09000BD001F05A
:10415000E6FC01A801F01EFD01A9204601F0FAFCD1
:104160005FEA000801D1002023E000270024002698
:1041700009E06946404601F0CCFC18B9BDF80000E2
:10418000641C3F18761CF0B24845F2D3E0B2022816
:10419000A4BFE4B2B7FBF4F73DB1B9B2404601F0B9
:1041A000BBFC4FF47A71B0FBF1F7404601F0AEFC76
:1041B000B8B2BDE8FE8300230122B8E70023B6E7CA
:1041C00070B504462C214C43BD4D2E19304601F0EC
:1041D000EBFC2A5D42F080022A55304670BDF0B5F6
:1041E000B84BB94C1B5C245C024600E0491CB74D3F
:1041F0002E78C8B2B04217D25FFA81FC2C25B04F9E
:1042000015FB0CFC07EB0C052878C0090CD068786E
:10421000904202BF2F7807F07F079F4204BFA87823
:10422000A042E3D148B2F0BD4FF0FF30F0BDF0B591
:104230000346002400200EE0E4B266440E5507F069
:104240000F076C1C0A2FACBF37263026EDB2F619CB
:104250004E55401CC0B29E79B042E5B212DAEF1C56
:10426000BA420FDB10B12D264E55641C1D182F7A53
:10427000C7F30316651C0A2EB4BF4FF0300C4FF085
:10428000370CD9E7E0B290423CBF00204855E0B27D
:10429000F0BD10B500F001F811E0012303FA00F0C1
:1042A00000F0FF0000EB0120894C704710B501239E
:1042B00003FA00F000F0FF0000EB0120854C81B212
:1042C0002078BDE8104001F08BBC70B500F006F816
:1042D000804E00F00AF800B90FE070BD04460120DE
:1042E00000FA04F404F0FF047047307804EB012472
:1042F000A4B21546214601F0A3BC30782A462146D7
:10430000BDE8704001F06CBC012202FA00F000F040
:10431000FF0000EB01206E4B07E0012202FA00F0E3
:1043200000F0FF0000EB01206A4B81B2187801F029
:104330005BBC012303FA01F101F0FF0101EB022153
:10434000002819BF62480078624A107889B201F0EB
:1043500077BC1CB500F045F80CBF02F1FC0102F17E
:10436000AC01052201F044FD9DF80000012816D0A3
:1043700002280FD0032807D0042810D0052809D020
:10438000062818BF0B2810D10DF101010868206024
:10439000012016BD0DF10101086880B2F7E70DF1AB
:1043A0000101086800F0FF00F1E7002016BD1CB510
:1043B00000F017F80CBF02F1FC0102F1AC0105227C
:1043C00001F016FD9DF80000072808D10DF101004D
:1043D000016800EE101A84ED000A012016BD0020CD
:1043E00016BD14463C4A00EB800002440229684690
:1043F00070470A78521C001D02F0AEB870B5102646
:104400000228054603DB0C2110FB01F6361D304661
:1044100002F0ACF8040003D0314601F0C5FB257072
:10442000204670BD420602D5491E8941C90F01F0E0
:10443000F3B92C22224B504318440079002818BFAE
:10444000FFF7F0BF704738B50024204D03E000218E
:10445000FFF7EFFF641C2978E0B28842F7D31F48CA
:10446000027802F0FD02027031BD70B52C2606E024
:10447000D5B2134C75432C44521C20716171D4B2D7
:104480009C42F5D370BD70B52C220D4B0446191D0E
:1044900054430C5D00E0401C0C4D2E78C1B2B1427B
:1044A0000CD251435D18297900291CBFA978002935
:1044B000F1D02979A142EED1012070BD002070BD5C
:1044C0006C710020F4890020FC890020C28C00203F
:1044D000EB280020EC28002060230000968C0020B0
:1044E000C000103070477CB5C0001030461814462C
:1044F0001D463146102002F0A2F848B90095234627
:1045000000223146102002F0FFF808B9012076BDE4
:10451000002076BDC00080B510304118102002F098
:10452000D1F8012002BD0B4604220021DBE702B5D1
:104530006B4604220021FFF7EDFF02BDC0F3C75117
:1045400081B1FF2906D0C110400721F0E04101F1FF
:104550006051704741020CBF40F4E0016FF0004130
:104560000020704700F0004100020AD0B0FA80FC41
:1045700000FA0CF001F16051A1EB0C5101EBD021DC
:104580004005704730B540F2FF7C1CEA11541DBF56
:104590001CEA1355644565453FE0641981EA030C44
:1045A0006FF35F530CF0004C43F48013C90241F0E9
:1045B000004141EA505EC5021100A5FB020200283D
:1045C0004FF00000EEFB01204FF00001E3FB05215E
:1045D00018BF42F00102401800214941E3FB0E01DF
:1045E000A4F580640D0302D292184041494154F170
:1045F000010470DD450872F1004250F1000051EBFA
:104600000451A1F5801102D441EA0C0130BD40F201
:10461000FF7E4CEA0E51002030BD0CEA1355644574
:1046200018BF654581EA030C0CF0004C41D050EAFC
:10463000410E1CBF52EA430E02E06146002030BD2D
:1046400024422C441BD15FEA050EF6D0090302BFB9
:1046500001460020AEF1140EB1FA81F5AEEB05046F
:1046600001FA05FE0C35C5F1200100FA05F5C84038
:104670004EEA000E6FF35F5343F480139CE733F070
:104680000043B3FA83F504BFB2FA82FE75440B3DD2
:10469000641BB5F1200E2FBF02FA0EF3AB40C5F13B
:1046A000200E22FA0EFE38BF43EA0E03AA40641C15
:1046B0007CE750EA410E14BF52EA430E6FF000014E
:1046C0004FF4001515EB430F8EBF194615EB410F44
:1046D0009DE7B4D830BDD4F10104B4F120050FDA60
:1046E000C4F12005520828BF42F0010210FA05FE6D
:1046F00001FA05F57244E2BFE0402843E1400FE0D3
:10470000352C9ADCC5F1200452EA400220FA05F269
:1047100018BF42F0010231FA05F0A1400A4300211E
:1047200072F1004250F1000051EB0C0130BD21004C
:1047300001F000428B1AA3F16051B1F5801F0ADB32
:10474000B1F17F6F1FD242EAC102C10071F1004195
:1047500042EB507070470B15C3F10903212B10D2A7
:10476000890241EA905180020128494141F000410B
:1047700021FA03F0C3F12003994071F10041504147
:104780007047100070476FF0000013EB103F5CBFE4
:10479000000E42EAC0507047DFF800F0DBFD021067
:1047A00038B50446FFF7F8FF002504E0615D225CA0
:1047B000625521546D1C401E8542F7DB31BD38B572
:1047C000020048BF524200230A2500F00EF8002ADA
:1047D000FBDCFFE7002802D52D22CA545B1C002019
:1047E000C8540846BDE83240DAE70A2492FBF4F4E4
:1047F00005FB14223032CA545B1C2246704710B5A8
:1048000002F058F84FF47A71B0FBF1F402F04FF86F
:10481000604310BD38B5044601F0AAFE05460E48B7
:104820000178220008D10A0710D441F00801017074
:10483000022002F0A5F909E0012C07D10A0705D5ED
:1048400001F0F7010170022002F02FF92846BDE8BF
:10485000324001F098BE0000C78C0020E0B56846E9
:1048600001F0E6FB0198B0F5803F28BF4FF6FF70DE
:1048700080B20EBD50B1B0FA80F18840C91CC1F5BC
:104880008461090501EBD02140057047014670475E
:1048900051EC100B00B500F003F841EC100B00BD1B
:1048A00040F2FF7C0B0D4DD0634566D230B421EA57
:1048B000035141F4801103F2FD3C5FEA5C0C01D32B
:1048C00000184941890041EA907180004FF440147A
:1048D0000023E202D50AB1F5100107D46D081DD2FC
:1048E000091B641900184941491BF7D56D080AD204
:1048F0000919641B00184941491BEFD56D08F7D30E
:1049000001E0520817D0C01861419B1AAC41001851
:104910004941801AA941F4D452080AD0C01AA141D1
:104920009B186C4100184941801AA941E9D45208EA
:10493000F4D15B1C6C4161084FEA330001EB0C5170
:1049400030BC704750EA0103FBD030B4B1FA81F3B8
:1049500011B9B0FA80F41B190B3BB3F120042FBF3F
:1049600000FA04F19940C3F1200420FA04F438BF9E
:1049700021439840D3F101039DE7634514BF50EAFA
:10498000410CDEE711F5801FDBD8D94302F002BCF1
:1049900070470143F0B540F2FF7581EA030C0CF05B
:1049A000004C15EA11541DBF15EA1357AC42AF4233
:1049B000E5E0BC41C1F31301C3F31303801A99412D
:1049C00043F4801304D2641E0018494180185941F1
:1049D000C90241EA5051B1FBF3F603FB1611A2FBE9
:1049E0000675D7EBC020A94102D2761E8018594126
:1049F000C90241EA5051B1FBF3FE03FB1E11A2FBB9
:104A00000E75D7EBC020A94103D2AEF1010E80187C
:104A10005941890241EA9051760546EA8E2EB1FB52
:104A2000F3F603FB1611A2FB0675D7EB8020A94114
:104A300002D2761E80185941C90241EA50514EEA0D
:104A4000060EB1FBF3F603FB1611A2FB0675D7EBBE
:104A5000C020A94102D2761E80185941C90241EAFC
:104A60005051B1FBF3F703FB1711A2FB0735D3EB52
:104A7000C020A94167F100070CBF004247F00107C1
:104A800066F3D5274FEA1E31B80814F5806412DDAD
:104A9000BD0775F1004250EB0E5051EB045111F57A
:104AA000801F5CBF41EA0C01F0BD4CF07F6141F01A
:104AB000E0410020F0BDBD076D0840EA0E5041F412
:104AC0008011D4F10104B4F120060ADAC4F1200601
:104AD0000200E04001FA06F3E1401843B2401543FA
:104AE0000EE0342C13DCC6F1200445EA40056D08C5
:104AF00020FA06F2154321FA06F0A1400D430021E9
:104B000075F1004250F1000051EB0C01F0BD0020A6
:104B10005FEA0C01F0BDCFB992185B41B3FA83F79D
:104B200004BFB2FA82F6BF190B3FB7F120062FBFC0
:104B300002FA06F3BB40C7F1200622FA06F638BF98
:104B40003343BA401CB1E419641E33E77F4231F0AD
:104B50000041B1FA81F404BFB0FA80F6A4190B3C0D
:104B6000B4F120062FBF00FA06F1A140C4F12006DF
:104B700020FA06F638BF3143A0403C1B1AE7AC428E
:104B80001ABF05EA1357AF4212E050EA41061CBFB4
:104B900052EA4306BFE750EA4107304661461CBF70
:104BA00041EA0551F0BD52EA430C08BFC143F0BDD4
:104BB00000204FF4001616EB410F98BF16EB430F81
:104BC00008BF16EB410F24BFC14305E016EB430FAE
:104BD0000CBF61464CEA0551F0BD015610F0004192
:104BE00060B148BF4042B0FA80F29040D21CC2F59A
:104BF000846241EA025202EBD02140057047014134
:104C0000C1F30A5340F21E42D31A0CDDCA0283F3E9
:104C1000070342EA505242F00042DA4002EBE172EE
:104C200082EAE17070476FEAE17203F2E13008B1A5
:104C300082F0004070470157F8B50D4688B0044631
:104C4000287800F051F900283ED1DFF86C230021CC
:104C5000131D53F8310018B1491C0829F9DB33E062
:104C600005A800230026002780E8C80002F831408C
:104C7000121D42F8315028788DF80000A86841884C
:104C8000ADF802108188ADF80410807900F00F00B3
:104C90008DF80600A868C1798DF80710A8688168AA
:104CA0000291007B8DF80C00A8680169049105A9A8
:104CB00028788DF814008DF81C30CDF818D02046D7
:104CC00002F0EEFA012000E0002009B0F0BDDFF8AC
:104CD000EC12086070472DE9F041DFF8E4522C68CF
:104CE00080460F4600F000F9002630B90020BDE8EC
:104CF000F081206800B9264604462CB12079404551
:104D0000F7D1A7600120F2E70C2001F02FFC00286A
:104D1000ECD00022026080F80480876029680029B6
:104D200014BF30602860EDE7FEB5DFF890621D46E5
:104D300033681446002B1CBF9A68002A17D000F075
:104D40003AF800271A6A1AB1DDE9000190470746D0
:104D5000A74201D10020FEBD224634682B46DDE982
:104D60000001A568A847012801D10A20FEBD09203D
:104D7000FEBDFEB5DFF844721D463B6800261446B2
:104D8000002B1CBFDA69002A13D000F014F81A6A4D
:104D900072B1DDE90001904750B122463C682B46D4
:104DA000DDE90001E569A847012802D10A2600E0F3
:104DB00009263046FEBD07228DF80020ADF802001E
:104DC000ADF804107047FEB5DFF8F0412468002507
:104DD000002C1CBF6469002C0ED00727ADF806001C
:104DE000ADF808108DF80470DDE90101089E009609
:104DF000A047012808BF0A252846FEBD10B5704906
:104E00000A6800E0126852B1036811791C7DA14262
:104E1000F8D191680029F5D0BDE81040084701207D
:104E200010BD01F0A3BB10B5044610460A4601466A
:104E3000204602F0C3FA204610BD03E011F8013B02
:104E400000F8013B13465A1E002BF7D1704710B5EE
:104E500013465A1E3BB110F8013B11F8014BA34217
:104E6000F6D0002010BD012010BD0822E5E7002883
:104E700018BF01F07CBB704701700A0A0B0C090EC9
:104E800042708370C170001D70470246022910787D
:104E900003D1517800EB01207047032906D15178E6
:104EA000927800EB012000EB02407047042908D102
:104EB0005178937800EB0120D17800EB034000EBB0
:104EC0000160704700223C4B03EBC201496811B1FD
:104ED0000978884203D0521C082AF5DB02E013F857
:104EE000320070470020704710B50146002232485A
:104EF00000EBC203586810B10478A14203D0521CE1
:104F0000082AF4DB00E010BD002010BDF0B58BB026
:104F100007460C4615461E462C21684602F082FACA
:104F2000397A8DF80010032906D1082239460DF18F
:104F3000020001F011FB03E011B13988ADF8021055
:104F4000797A12988DF80A107989ADF80C108107DA
:104F500044BF01228DF81C20C10644BF01228DF8F8
:104F60001D20010744BF01228DF81E20810644BF89
:104F700001228DF81F20410644BF01228DF8202018
:104F8000000644BF01218DF821101398119B109A3F
:104F900027788DF822008DF81470ADF8165006931E
:104FA000ADF824600A922078FFF78CFF694602F082
:104FB0007BF90BB0F0BD0000B8810020BC8A002056
:104FC000C08A0020F8B50D2805462DD201F0D0FA90
:104FD000DFF87C361A7800240146BAB100265FFA61
:104FE00086FC2820DFF86C7610FB0CFC6744787C8C
:104FF000000904D0761CF0B21728F0DD06E0521E3E
:105000003C461A70607C40F0F0006074084601F085
:10501000BAFA4CB1280014BF04F11C000020A061B2
:10502000E57504F10C00F2BDFFF718FC40F2013108
:10503000884206DB05F11006B0B201F032F8040038
:1050400001D10020F2BDB1B200F0AEFD280014BFC6
:1050500004F110000020E060E5722046F2BD38B592
:1050600004462079C0F30210022806D1E06820B17E
:10507000A17A022908BF01F07AFA6079000910D0FC
:1050800001F076FA05461C21204602F0CBF9DFF844
:10509000C0050178491C01702846BDE8324001F086
:1050A00072BA2046BDE8324001F00FB82DE9F04752
:1050B00004468A462668257901F05AFADFF89825D1
:1050C00080465068C5F302190027002102E001461E
:1050D00050F80C0C18B30368B34202BF0379C3F352
:1050E000021CCC4504BFDB09B3EBD51FEFD17F1CFD
:1050F000BAF1000F13D0FBB29A45E8D150F80C3C3E
:1051000044F80C3C5668B04208BF546009B141F8FD
:105110000C4C002140F80C1CFFF7A1FF00E00446F6
:10512000404601F030FA2046BDE8F08770B501F046
:105130001FFA0646DFF8200544680025456005E0B3
:10514000204654F80C4CFFF78AFF6D1C002CF7D159
:10515000304601F018FAE8B270BD2DE9F0430C4674
:105160008FB0200448BF84F4004000F1C680E007FF
:10517000DFF8E46440F1B5807078002884F001091C
:105180001BD1FFF76BFB002740F2011188424FF063
:10519000000813DAB078401CB070C0B21F28A4BF5A
:1051A000B770FFF7C3FFB078052190FBF1F101EB79
:1051B0008101401A03D000F0A3F890E0B770301DD1
:1051C00001F0A8F80400F8D0162106F1080002F05A
:1051D00029F921791625080910F0070003D00228C3
:1051E00051D014D358E0C809E57A05900497039785
:1051F000029701F00F01E068019006F10800A27A21
:10520000009216352389E28803F03EFC43E0E17901
:10521000FF290AD02C20DFF84424414357181E22CE
:1052200007A93846FFF703F88046E0680168069151
:1052300007AB21790279CDF81080001D029003930D
:1052400006A8552302EB0805CA09059201903922E8
:10525000009201F00F010C2206F1080003F014FC8B
:105260001A35010017D124373879010714D5FF21E9
:105270000020009102900190A179E0793F685523C8
:105280000C22B84708E0E288E068E57A01F00F01F7
:1052900003F0B0FB163570B9652D05DB307832228E
:1052A000012100F09DFC17E03078012100F097FF0C
:1052B00049F0010910E0607900F00F01022908DCD3
:1052C000411C61F3030060712146301D01F062F85A
:1052D000002400F015F814B12046FFF7C0FE484640
:1052E0000BE0A00708D5002171700121307800F093
:1052F00076FF84F0020000E000200FB0BDE8F083EC
:10530000012070704FF47A723078022100F068BC8E
:105310004FF6F07300F00F0003EA0213184340EA5F
:10532000014070472DE9F84F0B9DCB4E82468846D1
:1053300093461F462846FFF745FE040022D0DDF8BD
:1053400030905A4641465046FFF7E2FF20602A4619
:105350000AF00F0040EAC9102071A4F80680A4F8F2
:1053600008B0A7720A99E06801F0F6F8102F0CBF98
:10537000032101212046FFF799FE18B92146301D6F
:1053800000F092FF3078BDE8F44F09E103B583B037
:1053900000F00CF8292340F2024131E003B583B05C
:1053A00000F004F8212340F2054129E00021022207
:1053B00004AB029101920093002270471FB500EEEA
:1053C000102A0423B8EE400ADFEDA00A0022019360
:1053D00080EE200A029203AC8DED030A009439237B
:1053E000A5E0F8B59E4900F016F84FF4807205E08C
:1053F000F8B59C4900F00FF840F2031240F6043172
:10540000FFF790FF05B000BDF8B5974900F003F82D
:105410004FF48372F2E70A8800EE902AF8EE600AF1
:1054200020EE800ABDEEC00A10EE102AADF80C2066
:105430000023022103AA02930191009229237047BD
:10544000F8B5874900F00AF840F20552D6E7F8B5FA
:10545000844900F003F84FF4A162CFE70A8800EE18
:10546000902AF8EE600A20EE800ABDEEC00A10EE27
:10547000102AADF80C200023022103AA0293019107
:10548000009221237047F8B57849FFF7C4FF40F236
:105490000B52B3E703B583B00021012204AB0291A4
:1054A000019200934FF4A2622823A7E7FEB50E46AF
:1054B0006F49D1ED000AF8EE600A20EE800A054639
:1054C000BCEEC00A8DED010A162001F04FF8040071
:1054D0001ED0022020700E2266A1601C01F03CF854
:1054E00004F10F07042201A9384601F035F867607E
:1054F00000203871787107F8066FC4F80B7002202D
:1055000000901623224640F20271284600F04BF824
:10551000F7BD1FB50B0018BF012301218DF80C301A
:105520000292019103AC0094102300220621FFF7A0
:10553000F9FE1FBD2DE9F04707460E4692469946F3
:105540000C20FFF73FFD0400DFF80C8124D0089DFC
:10555000721C49463846FFF7DBFE206007F00F0754
:105560002079A57100F0800007433920A07247F030
:105570001007E0682771E67184F808900C22514604
:1055800000F0EAFF01212046FFF790FD20B92146F7
:1055900008F1040000F088FE98F80000BDE8F0472C
:1055A000012100F01CBE2DE9F04780468946140019
:1055B0009A4618BFBAF1000F11D0089E370908BFEC
:1055C000012706F00F06022E0CBF00205046FFF701
:1055D000F9FC050005D116B1204600F0C8FF0020F7
:1055E00031E0002249464046FFF792FE286008F06D
:1055F0000F01287900F08000084340F02000287156
:1056000085F80BA00020A5F806902881AE72022E26
:1056100008BFEC6008D0E8685246214600F09CFFC5
:1056200016B1204600F0A3FF39462846FFF73EFD9D
:10563000094C18B92946201D00F036FE20780121BA
:1056400000F0CDFD0120BDE8F08700000024744982
:10565000A33100208C110020E48500206C71002013
:10566000227400002A740000369E00005E9700003D
:10567000942D00000000250000000006033000000B
:10568000000000000146012001F01F0100FA01F1B5
:10569000002000291FBF844A13680B420120704775
:1056A00000F03F02282A0ADA012200F01F0012FA55
:1056B00000F004D07D4A09B1106070471061704756
:1056C000F8B500F04CF81EDA00F043F81BD078492A
:1056D0000A681043086024F0605403F01EFB00F0D9
:1056E0004CF830001CBF032E042E02D144F4C044F9
:1056F00008E0012E08BF44F4804403D0022E08BF06
:1057000044F4005449E0F1BDF8B500F028F81FDA80
:1057100000F01FF81CD066490A6822EA0000086001
:1057200044F0005403F0F9FA00F027F830001CBFF1
:10573000032E042E02D144F4C04408E0012E08BF19
:1057400044F4804403D0022E08BF44F4005424E003
:10575000F1BD012100F01F0011FA00F07047850033
:1057600005F0FC0505F1804505F501250E462F469F
:1057700000F03F013C6828297047002139706F1CF8
:10578000220AA91C3A70230C0B704FEA146C05F81E
:1057900003CF24F4C04403F0F1BA03F0BEFA240AA4
:1057A0003C70BDE8F24003F0E9BA70B500F02CF8A7
:1057B000254600F03F022E68282A24DA012200F054
:1057C0001F0002FA00F0C243E8B1394B29B1196851
:1057D000084326F06056186004E01868024046F05E
:1057E00000561A6003F099FA0021631C2970320AEE
:1057F000A11C1A70350C0D70360E04F8036FBDE84D
:10580000704003F0BBBA70BD840004F0FC0404F1E6
:10581000804404F50124704700F03F02282A0DDA85
:10582000012200F01F0012FA00F007D01F4A136C8B
:105830000343136409B110607047106170470000A2
:10584000F8B50D4600F03F0128292BDAFFF7DCFF01
:10585000184A2668137800F03F00834222D3164985
:1058600003F08EFA26F4E027032D47F4C02047F416
:10587000A0210ED8DFE805F00C0A050247F4E02766
:1058800007E006F4E026B6F5C02F01D10F4600E090
:10589000074603F042FA621C390A11703F0C04F803
:1058A000027F7EE7F1BD0000C02002409020024050
:1058B000D0200240547B040097030100F8B5044651
:1058C0000D4601260027344203D02946F8B2FFF7DF
:1058D000B7FF7F1C7600F8B22028F4DBF1BD01256C
:1058E00070B503F01AFA06467D484068FA246FF056
:1058F000F90560B1B0F90C108C42C8BF0C46B0F984
:105900000E1000688D42B8BF0D460028F2D129461E
:10591000204600F005F83046BDE8704003F02EBA8E
:10592000F0B46F4BB3F90040A0421ADA6D4D6E4CE3
:105930002E782568A5F5407576B2821C7543D7058B
:105940002D1105EBE735803D12F1F90F2ADA4FF4FE
:10595000803505F47F4525631880206A40F00400F7
:105960002062B3F9020088421ADA5E4C5E4A25785A
:105970001468A4F540746DB2881E6C43C6052411EA
:1059800004EBE634803C10F1F90F15DA4FF4803463
:1059900004F47F4454635980106A40F00800106298
:1059A000F0BC7047FA2AA8BF4FF47F45D1DA002D2A
:1059B000CFD54E4A1540CEE7FA28A8BF4FF47F4412
:1059C000E6DA002CE4D549480440E3E72DE9F04746
:1059D0004448454D01782A68414E454F4FF47F4376
:1059E0002B63FA2131802A6A22F004022A62002203
:1059F000007829686A636FF0F9007080296A21F0E5
:105A000008012962F86B7468D0F8001088470FFA13
:105A100080FAE4B1B4F90E90D4F80080D145BCBF4F
:105A2000B4F90C108A450FDBD145B8BFB4F90C901E
:105A30002146301D03F032FA0020226920752346EA
:105A4000A46849465046A0475FEA0804E2D1FFF740
:105A500047FF686A00F00C006862686A10F00C0F7B
:105A6000F7D139680A6ABDE8F0473520104770B5AC
:105A700084B003F052F91F4D0446287808BB6846ED
:105A800003F074F91C490A78019201218DF808107D
:105A90006B461A4A3521281D03F01CF91848194B8A
:105AA000816C21F0040181640322816C21F00801E2
:105AB0008164026009211A6816680220B04701203B
:105AC0002870204603F05AF904B070BD00B50E48A6
:105AD00081B001680A68904700B201B000BD0000C3
:105AE000503100200C1300502850094000FF0100E5
:105AF000B001001064860020587B0400CD590000DE
:105B00000050094084010010EC01001001680A688F
:105B1000104702689368184702681369184770B500
:105B200003F0FBF818490546087860B901221748C8
:105B30000A7004783CB1164E304656F80C1B4A6980
:105B40009047641EF8D12846BDE8704003F016B9AE
:105B50000000000030B50C4C237881B000227BB1EE
:105B60000A4C2578A8420BD209B900BF0CA100EB62
:105B700040029200064B98189B589A69904702463B
:105B8000104601B030BD0000F48C0020507B0400B2
:105B9000002F000002A1D1E90023C0E900237047D3
:105BA0000000000001000000002201F00BBC016DAC
:105BB000DFF800F09DEB0210DFF800F025DB0210AB
:105BC000DFF800F0C5E20210DFF800F0C3EC0210CD
:105BD000DFF800F0E7E90210DFF800F0BBEC02109C
:105BE00000238EE001238CE070B504460E4600F0E1
:105BF000BFFC05463146204600F0E5F804001AD007
:105C00002068FFF7DDFF2046FFF7E6FF7548816853
:105C10008C4203D12169816005E001460869A042F8
:105C2000FBD120690861204600F0A1FC284600F065
:105C3000AAFC002070BD284600F0A5FC022070BD23
:105C4000F8B505460E4600F093FC0446314628465A
:105C500000F0B9F8002750B1006803F036F9624A45
:105C600013684FF47A71B1FBF3F3B0FBF3F72046FE
:105C700000F089FC3846F2BDF8B55A4E00F078FCC9
:105C8000F468054654B127692046FFF7A5FF204672
:105C900000F06DFC3C00F6D10020F0602846BDE825
:105CA000F24000F070BC4F4A10705160704710B560
:105CB0000446A168207900F092FA207B00BB20689E
:105CC000FFF77EFF474A9068844203D120699060C5
:105CD00005E008460169A142FBD12169016100206C
:105CE000D168206111B9D46004E001460869002838
:105CF000FBD10C61BDE810405168107800F06FBA1C
:105D000010BD2DE9F8471E46374B80468946186876
:105D10004FF47A71B1FBF0F0424389B0154600F0C0
:105D200027FC82464946404600F04DF8082704000B
:105D30000AD02068FFF744FF20682946FFF744FF98
:105D40002068FFF745FF37E0142000F00FFC040047
:105D500032D00823242200216846FFF729FF002EB5
:105D600014BF059505960121ADF810100694002387
:105D70006A4629461D48FFF71FFF2060C8B184F816
:105D80000480C4F8089026730020206115488168BB
:105D900011B9846004E0014608690028FBD10C6158
:105DA00020682946FFF710FF2068FFF711FF002742
:105DB00002E0204600F0DBFB504600F0E4FB3846F2
:105DC0000AB0BDE8F08720B502460648806800E0CA
:105DD000006928B10379934204BF85688D42F7D1E9
:105DE00020BD0000AC88002060160000AF5C000001
:105DF00062B38B0708D0521E11F8013B00F8013B3B
:105E000000F024808B07F6D1830740F0208000BF8C
:105E1000103A07D330B4B1E83810103AA0E838107F
:105E2000F9D230BC530724BFB1E80810A0E808102D
:105E300044BF51F8043B40F8043BD20724BF31F87B
:105E4000022B20F8022B44BF0B7803707047121FFF
:105E500017D35B0009D151F8043B20F8023B1B0C1F
:105E6000121F20F8023BF6D20BE051F8043B00F879
:105E7000013B1B0A20F8023B1B0C121F00F8013BE0
:105E8000F3D238BF121D521E24BF11F8013B00F897
:105E9000013BF8D870470100DFF800F021CD021077
:105EA000DFF800F0F5EA0210DFF800F0B1BF0210F1
:105EB000DFF800F04DEA0210DFF800F045DF0210D5
:105EC000F8B542F20C74DFF810562E19307901281B
:105ED0001DD02846002101E040F8041B42F2107258
:105EE0002A449042F8D3E8212960002042F224623B
:105EF000DFF8E8753060C5F8E82005F1E801796061
:105F000000F006F8B8607D60FC6001203071F1BDE2
:105F1000F8B500260027051D15F003001CBF291D3C
:105F20000D1A00F025FB0146DFF8B025112D34BF16
:105F3000546894682068002803D580F0004000274A
:105F40001AE03B0014D03368D4F800C06344AB427D
:105F5000336011D334461846ECB1401B042811D3EA
:105F6000605145F000402060D3685D1BD56011E0B2
:105F7000A842F1D201272646044420680028DAD13D
:105F8000002408E0D36820681B1AD360256845F018
:105F900000452560241D11600846F3E038B5040073
:105FA00019D0DFF8385500F0E3FA286054F8041CE3
:105FB000002903D42969491C29610BE021F0004123
:105FC00044F8041CEA688918E960211F6A68914254
:105FD00038BF69607CE131BD2DE9F04100F0C8FABD
:105FE000DFF8F8249368002400250026002709E044
:105FF0000E4601251C4604E011D581F00041002524
:1060000047460B441968B046BE4238BFB84600291F
:10601000F2D1106000F0B7FA4046BDE8F081002DE3
:10602000E6D0D4F800C08C44C4F800C08E19E8E76C
:1060300010B5044642F21070DFF8A0142060CA6860
:106040006260FFF7C9FF09282CBF08380020A06054
:1060500010BD80B5FFF734FF4BF6BE2002BD0846E9
:1060600056E708469AE702B56846FFF7E1FF01BD2B
:1060700001207047F0B5DFF8684425782E460F2ED2
:106080000BDA1823DFF85C745E43BB1958600020FC
:106090001D70D960986018745A616D1C2570681E57
:1060A000F0BD38B504460025200001D1002032BDE6
:1060B00004F10C0000F05AFA28B10560FF220481B7
:1060C000827200F10C05284632BD80B508B9052062
:1060D00002BD10F8021CFF2901D0042002BD0C38BB
:1060E00000F045FA002002BD2DE9F0410C00064603
:1060F00002D10520BDE8F0810020DFF8E85300E080
:10610000401CDFF8DC231378C1B2994217D2C7B222
:1061100018214F43EA5DB242F2D100F029FA8046DD
:10612000E8192146083000F0BFF84FF4004130462E
:1061300000F055F8404600F026FA0020DAE7032088
:10614000D8E7F8B505460E4600F012FA0024002103
:10615000DFF8902300E0491CDFF884733F78CBB26E
:10616000BB420FD2182717FB03F3D75CAF42F2D123
:10617000D1188C6801E054F80C4C002C1CBF21781D
:10618000B142F8D100F0FFF92046F2BD2DE9F84305
:1061900080464FF000090026DFF84843DFF84053FF
:1061A00016E000F01CF812E018225043215C414533
:1061B0000DD1271807F1080000F0ACF88146B86847
:1061C00000284FF40041F0B2EBD100F046F8761C05
:1061D0002978F0B28842E7D34846BDE8F2832DE93A
:1061E000F04781468A4603260025BD4C18E0182159
:1061F000BC48694347183A784A450FD100F0B8F9CE
:106200008046786901684AEA01010160F86808B1CE
:10621000FFF742FE404600F0B6F900266D1CEDB2D5
:1062200020788542E3DB3046BDE8F08770B5044650
:106230000025AB4E0DE01821AA4869430844426886
:10624000A24204D1C0684FF0FF31FFF72DFE6D1C54
:10625000EDB230788542EEDB70BD2DE9F04180462D
:106260000C4600279E4E04E02878404510D07F1C45
:10627000FFB23078874215DA18229A497A438D188E
:10628000B8F1FF0FF0D1FFF70BFE69688142EED144
:1062900000F06EF969690A6822EA04040C60BDE83E
:1062A000F04170E1BDE8F08138B505460C4600F0DC
:1062B0005FF96CB1002144F80C1C2A6812B92C60FB
:1062C00006E00A4652F80C1C0029FAD142F80C4CA0
:1062D000BDE8324057E12DE9F84304460D469046AB
:1062E00000F046F9814620680027002628B100E02A
:1062F0007F1C50F80C0C0028FAD1474504D22946DF
:106300002046FFF7D1FF0126484600F03CF9304611
:10631000BDE8F28338B5044600F02AF9216800256B
:1063200041B10D46A5F10C0100230A682260FF244B
:106330000B608C7200F027F9284632BDF8B507468D
:106340000E4600F015F9002400250021654A00E002
:10635000491C634B1B7899421BDA18234B4312F8F4
:1063600003E0BE45F4D1D1188C6801E025461446FF
:106370007CB1237854F80C2CB342F7D1002D0CBF1C
:106380008A6045F80C2C0021FF2244F80C1C04F80C
:10639000022CF7E638B504460D4600F0E9F821680E
:1063A00045F80C1C256093E770B504460D4616466B
:1063B00000F0DEF8A5F10C0123680A689D420CBFCD
:1063C000226046F80C2C0022FF230A608B72BDE885
:1063D0007040D8E0F8B5424C424A65780026002368
:1063E00011E018275F4302EB070CD75D874204D109
:1063F0000F0018BF01278CF810709CF810703E43F6
:1064000018BF01265B1C2778BB42EADB02F085FC43
:106410000746300009D1012D28460FD100F045FB79
:10642000022000F042FB002508E0280006D10120F0
:1064300000F0A6FB022000F0A3FB0125384602F085
:106440009DFC65703046F2BD014688684968084782
:106450002DE9F84189B080460F4616461D0008BF59
:10646000022035D02C68F4B90C20FFF751FD040050
:1064700015D00823242200216846FFF799FB00204D
:106480000590ADF81000069400236A464146164870
:10649000FFF792FB20606760A660206808B90820BB
:1064A00016E02C600CE000F063F80546206802F06E
:1064B00025FD10B12068FFF783FB284600F063F844
:1064C00020684146FFF780FB2068FFF781FB002032
:1064D0000AB0BDE8F0810000DC310020E887002030
:1064E0009A8C0020047000204964000070B50500FB
:1064F0001CBF2C68002C01D0206808B9022070BD98
:1065000000F036F80646206802F0F8FC10B120686A
:10651000FFF756FB2046FFF75FFB204600F027F809
:1065200000202860304600F02EF8002070BD20B119
:106530000068002818BFFFF743BB704710B513462B
:106540005A1E3BB110F8013B11F8014BA342F6D0A3
:10655000002010BD012010BD03E011F8013B00F840
:10656000013B13465A1E002BF7D17047D0E415E5C6
:1065700080B5FFF79DFCADF8000002F0CEFBADF852
:106580000200009802BD01B5BDF8020002F0F6FB62
:10659000BDF80000BDE80240FFF78EBC80B50221C7
:1065A00000F002F880B202BD012901D100787047E5
:1065B000022904D10178407801EB002070470329BB
:1065C00007D102784378807802EB032101EB004089
:1065D000704704290AD10278437802EB03218278BC
:1065E000C07801EB024101EB006070474FF0FE30D4
:1065F000704701700A0A0B0C090E42708370C1705B
:10660000001D704710B540B1002300E05B1CDCB2F8
:10661000944204D2045D8C42F8D0002010BD0120C9
:1066200010BD80B502F096FC80B202BD6C480068D7
:1066300020B1816800291CBF002008477047FEB5C3
:10664000674E1D4633681446002B1CBF1A69002A8A
:106650001AD001228DF8002000F04CF800279A6A29
:106660001AB1DDE9000190470746A74201D1002099
:10667000FEBD224634682B46DDE900012569A847A6
:10668000012801D10A20FEBD0920FEBD13460A469D
:1066900001460020D3E71CB5514B1B680022002B9C
:1066A0001CBF9B6A002B08D0012400F023F88DF852
:1066B0000040DDE900019847024690B216BD014650
:1066C0000020E8E7BCB5464C24680025002C1CBF20
:1066D0006469002C0CD0012700F00CF88DF80070D4
:1066E000DDE90001A04718B10A280CBF09250A25D9
:1066F0002846B6BDADF80200ADF804107047134649
:106700000A4601460020DDE77FB5354C2468002CA1
:106710001CBFE469002C0FD00126ADF80600ADF8CF
:1067200008108DF80460DDE90101089D0095A0477F
:10673000012818BF002000D10A2004B070BD78B530
:10674000274C246887B0002C1CBF246A002C16D06C
:106750000491ADF8160001260F99BDF838000C9D84
:1067600003918DF814600026BDF834100290019159
:10677000ADF81860DDE905010095A04700B10A20D9
:1067800008B070BD80B5009313460A46014600204C
:10679000FFF7BAFF02BDFEB5114E3368002514465F
:1067A000002B1CBF9A69002A18D001278DF80070B1
:1067B000FFF7A0FF9A6A1AB1DDE90001904708B916
:1067C00009250BE0A04218BF0C2507D13268936958
:1067D000DDE900019847012808BF0A252846FEBDCB
:1067E00030590020DFF800F001CE0210DFF800F091
:1067F0008DDD0210DFF800F049E60210DFF800F04E
:10680000FDE90210DFF800F011DC0210F0B51C0009
:1068100089B005460E46174605D10023FFF7E6FF6F
:10682000284609B0F0BD0823242200216846FFF75E
:10683000BFF9A16806916B462278ADF810203A4660
:106840006068059031462846FFF7D0FF284609B01A
:10685000F0BDF0B5140089B005460E46264F05D1AF
:106860003B460022FFF7A8F909B0F0BD0823242217
:1068700000216846FFF79CF9A16806913B46227803
:10688000ADF810206A466068059031462846FFF74B
:1068900093F909B0F0BD00B581B000906846FFF7EC
:1068A0009BF901B000BDFFF7A5BFFFF7A7BF1348D5
:1068B00000687047FFF7A6BF02F007BB00B581B0C4
:1068C00002F01CFB401E8041C043C00F01B000BD60
:1068D00000218160017041607047FFF775B9FFF7D3
:1068E00077B9FFF76DB90549096800EB5100B0FBB6
:1068F000F1F0FFF777BF0000F02D002060160000D8
:10690000DFF83C0880687047DFF83418084490F8D6
:106910004A01704702460020022904D1012A06D10B
:1069200040F2EE207047012A08BF4FF47A7070479A
:10693000DFF80C1891F8410120B1D1F86C01002862
:1069400018BF00477047F0B5DFF8F44794F84201EC
:10695000002883B040F090800121DFF8E867DFF87D
:10696000E85784F84211307B84F841017168C4F81B
:106970006C11A868C0F38140A0B9306990B12F684C
:10698000FFF795FFC7F30662642111FB02F2B2FB29
:10699000F0F200230FF2ED7104F19400FFF736FFDF
:1069A00002F000FB6846FFF793FF002001908DF88E
