:020000040000FA
:060000000217EC020A7C6D
:03001300020B38A5
:03002B0002156358
:03003300020CC6F6
:03003B00020B8D28
:03004B0002147725
:030053000209B1EE
:03005B000212CFBF
:030063000212F096
:03006B00020C6C18
:03007B00020C9DD7
:10008300020A10010020FD000201FC05000000012E
:10009300D21EE41E0000EA1EF01E00000000F61E41
:1000A3000E1F141F1A1F00000000000000000600AE
:1000B300041400041801FF0D010612FFFFFFFFFFE8
:1000C300FFFF0101010400BA15000000E80300006E
:1000D300FFFF0E16E803000064006400B801A0BB34
:1000E3000D00A0BB0D00020200F8FF0705021E046D
:1000F30001051E02051E020A0A0101080803102752
:1001030002803E0102FEFFE8030A050001FFFF0231
:100113000A1401E002000000C503423F1A51123FD6
:10012300F304B53F0000803EFFFFFF00050301011C
:10013300FFEC3E00000000223E00000000FF000034
:1001430000FF00C082C083E9FA5407F8744528F51C
:1001530082E43484F583E0F879006022EAC4540F22
:100163005403600814600914600D8012E580800256
:10017300E5905870078007E5A058600279010202F4
:100183006FC082C08312027440047800800312039C
:100193002CE8F4FCEB600814601214601C802BEA5A
:1001A3006005E842808023EC5280801EEA6005E807
:1001B30042908016EC52908011E8C39420500BEAD1
:1001C3006005E842A08003EC52A002026FC082C027
:1001D3008312027440047800800312032CE8F4FCB9
:1001E300E8700302026FEB600814602C1460508007
:1001F3007BEC52F374016A601274026A6015740432
:100203006A7003E8428FE842FD806153F7DFEC52E6
:100213008F80F343F72080F6EC52F474016A601286
:1002230074026A601574046A7003E842F6E842FED9
:10023300803A53F7BFEC52F680F343F74080F6E879
:10024300C394205027EC52F574016A601274026A59
:10025300601574046A7003E842F7E842FF800D53A7
:10026300F77FEC52F780F343F78080F6D083D08298
:1002730022E9C4540F5403FB743F59C394302274CE
:10028300F8120EC2E9C4540F5403FE743F59C394C9
:100293003040047800800312032CE8F4FBE8607715
:1002A300EE600814602B14604E806CEB52F352FD29
:1002B30074016A600F74026A600F74046A7058E80C
:1002C300428F805353F7DF800343F720EB528F8035
:1002D30046EB52F452FE74016A600F74026A600FB7
:1002E30074046A7032E842F6802D53F7BF800343EB
:1002F300F740EB52F68020E8C39420501AEB44E019
:10030300FB52F552FF74016A601274026A6015743D
:10031300046A7003E842F77F0102125053F77FEB40
:1003230052F780F343F78080F6E95407FC74452CB9
:10033300F582E43484F583E0F822C082C08312029C
:100343007440047800800312032CE8F4FCE860385E
:10035300EB600814601214601C802DEA6005E8420B
:10036300FD8025EC52FD8020EA6005E842FE8018FE
:10037300EC52FE8013E8C39420500DEA6005E84276
:10038300FF800574E04C52FF02026FC082C08312EB
:10039300027440047800800312032CE8F4FCE86044
:1003A3003FEB60081460151460228034EA6005E8AE
:1003B30042808003EC5280E842FD8024EA6005E835
:1003C30042908003EC5290E842FE8014E8C39420EC
:1003D300500EEA6005E842A08003EC52A0E842FF19
:1003E30002026F743F59C394305042E9C4540F540E
:1003F300036007146013146020227801E8F4FBEA19
:10040300602414601814601922740F59C3940450A3
:1004130004780280E7780480E3780880DFE8428C80
:1004230022E58C586004EB528C22E8428C2212178E
:10043300FC601D12180B7005191919801A12166524
:10044300701F12168DC37003E6673319191940071D
:100453001818182208080874FFF618F618F618F684
:100463002212168D60171218B1702192F01218BA69
:100473007019501720F014080808090909E7F6183D
:1004830019E7F61819E7F61819E7F6221218BA60F1
:10049300E6E869701F0808E62480F608E436F618D3
:1004A300547FB47F0CE654806007F6E418F618F620
:1004B30022181822E9C6CC08C6CD08C6CE08C6CF76
:1004C300C0E0E8C0E0EAC0E0EBC0E009E9F809E712
:1004D300FA09E7FBE6F918E6F8C3EC98ED99EE9A0A
:1004E300EBC2E7F5F0EFC2E795F0500E600CEBCFEF
:1004F300FBEACEFAE9CDF9E8CCF8EAA2E7D2E7FACB
:10050300EB33FB13F5F0EEA2E7D2E7FEEF33FFC5C3
:10051300F013A2E730E601B313C5F0C3C0E0C0F0A7
:100523007F00C39BFB605E9418600F401D14601A2C
:10053300D0E023F9D0E0F80206128AF0E94860031C
:10054300D2F0E4AFF0FAF9F8803BEB30E40D89F038
:10055300EA6003D2F0E4AFF0F9CAF8EB30E30D88B8
:10056300F0EF6002D2F0AFF0E4CAC9F8EB540760D1
:1005730014FBC3EA13FAE913F9E813F8EF13500273
:10058300D2E0FFDBEDD0E0C0E030E739C3E49FFF0A
:10059300F5F0EC98FC42F0ED99FD42F0EE9AFE4244
:1005A300F0D0E0F9D0E0F8E5F0607AE923F9EE2045
:1005B300E742D8028067C3EF33FFEC33FCED33FD32
:1005C300EE33FE80EAEC28FCED39FDEE3AFED0E096
:1005D30023F9D0E0F84002801BC3EE13FEED13FDB8
:1005E300EC13FCEF135002D2E0FF08B800067F7F44
:1005F30074FF802EEF3350178CF020F00260100C44
:10060300BC000C0DBD00080EBE000408E860DFE965
:1006130033E813FFEE2313FE4F4D4C8008E954805B
:10062300FFE4FEFDFCEE33EF33F47004FCFD7E804B
:10063300D0E0FBD0E0FAD0E0F8D0E0CFC618CEC6C9
:1006430018CDC618CCC6F9221217FC700418181856
:100653002212180B700D74FFF61819F61819F618F4
:1006630019F622E7548066F61218BA700F1218B101
:1006730070F014F608F608F608F680D11218B17077
:100683000CF608F608768008E6447F80EC12169094
:10069300700C12166860BFE65480F6E480BB121635
:1006A30068700519191980A5E869700C763F1876EA
:1006B3008018F618F6E8F922E6CDC0E018ECC0E0A1
:1006C300E633CD33CDD313F6E719FCE7191933CC51
:1006D30033C3947F400ECD9D502408E65480F6E446
:1006E30018F6800FF4043D14501408E6447FF618FE
:1006F3007680E418F618F6D0E0FCD0E0FD22CCD3E7
:1007030013CCFD18E4C6CBC0E018E4C6CAC0E008A9
:1007130008ED08C633E613F618E433C675F003C3D1
:10072300CA97CA09CB97CB199C40047D08802EBD7C
:1007330000030207F416B6FF050606081618C3CA17
:1007430033CACB33CB33CA27CA09CB37CB193CC304
:100753007D08803E187D0820E75CC633C6CA33CACD
:10076300CB33CB33DDF1D5F0EB30E77BCA97CA0946
:10077300CB974ACB199C406F4B7025E620E0218034
:1007830066187D08C3CA97CA09CB97CB199CD3C6F1
:1007930033C6CA33CACB33CB3350C9DDE7D5F0E117
:1007A300D3E4C636C608C636C608C636C608C63635
:1007B300C61818188031C3CA97CA09CB97CB199C9E
:1007C300B34097C633C6CA33CACB33CB33DD34D534
:1007D300F02EC6A2E0C640C8CA27CA09CB37194AB9
:1007E30070BECB3CB480B90808E63308E633601F1B
:1007F300181818D0E0FAD0E0FBD0E0FCD0E0FD22DE
:10080300187D08CA27CA09CB37CB193CD38080137C
:10081300F618E4B67F11F618B6FF0EF618C6047084
:10082300D20808768080CAF618F618F680C500123A
:1008330017FC604F12180B6012E7548066F612160D
:100843006570111218B1703B090909F4F618F6180E
:10085300F618F62212168D70151218BA08080860D9
:10086300EAE6447FF618768018E4F618F6221218A2
:10087300BA60161218B17012E4F608F608F608E624
:100883005480F609090918181822EAC0E0EBC0E001
:10089300ECC0E0EDC0E0E687F0A4FBACF008E6872F
:1008A300F0A42CFCE435F0FA1809E687F0A42C4BED
:1008B30060027401CA35F0FCE433FB09E687F0D229
:1008C300F7A42CCB35F0FC1908E687F0A42BCC3524
:1008D300F0FBE433FD0819E687F0D2E7A42C4ACBFA
:1008E30035F0CD3400FC09E687F0D2E7A42DCC35F2
:1008F300F0FDE433FA0918E687F0D2F7A42CCD35DE
:10090300F0CA3400FC08E687F0D2E7D2F7A42ACC79
:1009130035F07A7E20E70B0ACB33CBCD33CDCC3306
:10092300CC33CB3350147004ED30E00ED2F1E4CD70
:100933003DCDCC3CCC3B5005DA05C2F1EB547FC630
:100943003308E63392F0FBE73309E733C39A502DBC
:100953002B70190C0D4C4D70151806E608C3337037
:100963000D20F10AA2F013F6E418800B4024E4F6FC
:1009730030F002768018F618F618F68024D33B146C
:10098300501074FFA2F013F6187680E418F618F6E8
:10099300800FA2F013F618E63303F618ECF618ED01
:1009A300F6D0E0FDD0E0FCD0E0FBD0E0FA22C0E0DE
:1009B30074F1120F28A2AFE433F509D2AF85A7086B
:1009C300AFA1EF5508FE74105E6006121BBA75A145
:1009D300EF74085E6008121BC075A1F78024EFA2B4
:1009E300E092F0E508A2E082F05017906198E0F8F9
:1009F30090056CE0C398A2D265D0335002E8F0753D
:100A0300A1FEE509A2E092AF7F02020F87C0E07466
:100A1300F2120F28A2AFE433FED2AF9061A4E0F844
:100A2300759B00E59158540860087591F7121C08EE
:100A33008023E59158541060087591EF121C0E80C5
:100A430014E591A2E092F0E8A2E082F05007E0C240
:100A5300E0F0121D589061A3E0F8E5E958540460F2
:100A63000E121D2E75E9FB906193E0A2E640F2EEB3
:100A7300A2E092AF7F01020F87C0E074F2120F2849
:100A8300A2AFE433FED2AF9061A5E0F8E5BF5854BE
:100A930004600675BFFB121D7080D4C3E498F8E4AC
:100AA30099F9120ADF8026C3E49AFAE49BFBE92052
:100AB300E7E9120ADFE498F8E499F922C3E498F825
:100AC300E499F9120ADFE498F8E499F9C3E49AFA8D
:100AD300E49BFB22EB20E7CFE920E7E0B90010BB62
:100AE3000008E88AF084F8AAF022E4FBC8FA22EBB3
:100AF30070227B10C833C8C933C9335007C39AC3A4
:100B0300DBF280069A50012ADBEAC833F4C8C93302
:100B1300F4C9FA2275F008E4C833C8C933C933C924
:100B23009AC99B5004C92AC93BD5F0ECFBC833F4DE
:100B3300C8E4C9FA22C0E0C0D0E8C0E0E9C0E0C020
:100B430082C083A8C1E8C0E09004D9E0F8745828B3
:100B5300F582E43404F583D0E0F09004D8E0F8A300
:100B6300E0687006E5959004DBF09004D9E004F0AA
:100B7300C394804002E4F0A374C6F0D083D082D043
:100B8300E0F9D0E0F8D0D0D0E032C0E0C0D0E8C087
:100B9300E0E9C0E0C082C08390055CE0F8A3E068B0
:100BA3007008539AFBA374018022C2E990055CE0AC
:100BB300F8740128F074DC28F582E43404F583E04A
:100BC300F5C190055CE0C394804002E4F080AC1270
:100BD3000C1D30F039120C628034120C1D20F014FD
:100BE30030E72B74FFFCFBFA747F8022E4FCFBFAF2
:100BF3007480801AB48008BC00F2BB00EF800F50F1
:100C0300EBF9E4C39AFAE49BFBE49CFCE499C6CCBD
:100C130018C6CB18C6CA18C6F922E4C9C608CAC67C
:100C230008CBC6D3330308CCC63392F0C3947F40BA
:100C33002E94184019C9B90704CACBCC225025C336
:100C430009CA33CACB33CBCC33CC33D9F422F460C7
:100C53000DC9CCC313CB13CBCA13CAD9F6CC22E428
:100C6300FCFBFA2214FCFBFA22C0E074F2120F28F8
:100C7300A2AFE433FED2AF900713E05589600FE5CE
:100C830089FA790012203A900713E0F45289C2C519
:100C9300EEA2E092AF7F01020F87C0E074F2120F61
:100CA30028A2AFE433FED2AF900714E0558A600F59
:100CB300E58AFA790112203A900714E0F4528AC2C5
:100CC300EB80CDC0E074F2120F28A2AFE433FED262
:100CD300AF900715E0558B600FE58BFA7902122070
:100CE3003A900715E0F4528BC2E880A4080808EA9A
:100CF300C0E0EBC0E086F0E7A4FA180986F0E7A4A9
:100D03002AFA180986F0E7A42AFA180986F0E7A454
:100D13002AFA1986F0E7A4FBE5F02AFA190886F007
:100D2300E7A42BFBE5F03AFA190886F0E7A42BFBBE
:100D3300E5F03AFA18180986F0E7A4C5F02BFBE4AE
:100D43003AFA1908E7C5F0C6A426F6E5F03BFBE43A
:100D53003AFA1886F0E7A4F6E5F00826F6E43B082D
:100D6300F6E43A08F6D0E0FBD0E0FA22080808E6F9
:100D730030E7111216C9120D87080808C64480C649
:100D830018181822181818E9799EC608CAC608CB7D
:100D9300C608CCC6C370207996CACBCC7019798E9D
:100DA300CBCC70137986CC700EF9802ACA33CACBA8
:100DB30033CBCC33CC331930E7F2CCCBCA3350141A
:100DC3007004EA30E00DE4CA3ACACB3BCBCC3CCC4E
:100DD300500209C3E913C6CC182313C6CB18C6CADD
:100DE30018C6F922E4CFC0E0E4CEC0E0E4CDC0E011
:100DF300E4CCC0E075F020E626F608E633F608E614
:100E030033F608E633F6181818EC33FCED33FDEE31
:100E130033FEEF33FFC3EC9709ED9709EE9709EF24
:100E230097191919400FFFEC97FC09ED97FD09EE8F
:100E330097FE191906D5F0BFECF709EDF709EEF7A0
:100E430009EFF7191919D0E0FCD0E0FDD0E0FED08E
:100E5300E0FF222518C582C0E0E51934FFC583C031
:100E6300E0E518C3958224F810AF088583198582BD
:100E7300188008858319858218D2AFCEF0A3E520A8
:100E8300F0A37808E608F0A3DEFAEFF0A3E58124E7
:100E9300FAF8E608F0A3E608F0A3E608F0A30808CA
:100EA300E608F0A3E608F0A315811581D0E0FED093
:100EB300E0F8158115811581E8C0E0EEC0E0222538
:100EC30018C582C0E0E51934FFC583C0E0E518C347
:100ED300958224F910AF08858319858218800885C7
:100EE3008319858218D2AFCEF0A3E520F0A378084A
:100EF300E608F0A3DEFAEFF0A3E58124FBF8E608A9
:100F0300F0A3E608F0A30808E608F0A3E608F0A3B8
:100F130015811581D0E0FED0E0F815811581E8C078
:100F2300E0EEC0E022C0D02518C582C0E0E5193448
:100F3300FFC583C0E0E518C3958224F310AF08858D
:100F430083198582188008858319858218D2AFC8D2
:100F5300F0A3E9F0A3EAF0A3EBF0A37908E709F023
:100F6300A3D8FAECF0A3EDF0A3EEF0A3EFF0A3D037
:100F7300E0F0A3D0E0F0A3D0E0F0A3E520F0A3E5F8
:100F8300F0F0A322851983851882E0C0E0A3E0F97D
:100F9300A3E0FAA3E0FBA37808E0F608A3DFFAE0F6
:100FA300FCA3E0FDA3E0FEA3E0FFA3E0C0E0A3E019
:100FB300C0E0A3E0F5D0A3E0F520A3E0A3F5F01093
:100FC300AF0885831985821880088583198582185F
:100FD300D2AFD082D083D0E0F8D0E0321216CC1852
:100FE3001818120DE712179B1919192212179B19BA
:100FF3001919080808E618181820E7E0120DE71277
:1010030016CC18181822090909E719191920E7DC61
:10101300080808E618181820E703020DE71216CC93
:10102300181818120DE71216CC18181812179B1956
:1010330019192212189CB90003021075E4900401D7
:10104300787D79158002F0A3D8FCD9FA7A7D7B18D4
:1010530090008678C179018015E493A3AD82AE83B5
:101063008A828B83F0A3AA82AB838D828E83D8E995
:10107300D9E775821075839674071214F4758298F4
:1010830075833774001214F4FF75F0108E1A8F1BDA
:1010930085821F85831E851882851983E0CEA3E090
:1010A300CF851F82851E83EBC9EAC8EDCBECCAC38B
:1010B300E833C8E933C9EA33CAEB33CBC3EA9EF555
:1010C3001DEB9FF51CB35004AB1CAA1DEC33CCEDF8
:1010D30033CDD5F0DAAE1AAF1B221217FC601C1207
:1010E300180B60171218BA70071218B17001D322C7
:1010F300C0D01218B17006D0D0B322C32233D0D0DF
:10110300501430E0F6C3E7960809E7960809E79616
:101113000809E796B32220E0D5E6970809E6970881
:1011230009E6970809E697B322D083D082ECC0E0A2
:10113300EDC0E0E493A3FCE493A3FDED4C600D123A
:101143001290EC24FFFCED34FFFD80EFE493A3FC4D
:10115300E493A3FDED4C600D121397EC24FFFCED1B
:1011630034FFFD80EFD0E0FDD0E0FCE493A3C0E0CA
:10117300E493C0E0221217FC601B12180B601612D6
:1011830018BA70071218B1600CB322C0D01218B18C
:101193007005D0D022C32233D0D0501330E0EBC33C
:1011A300E7960809E7960809E7960809E7962220D3
:1011B300E0E4E6970809E6970809E6970809E69741
:1011C30022D083D082E9C0E0E493A3C386F0C5F0C4
:1011D30095F0F908E493A386F0C5F095F0700BE45D
:1011E30093A3C3994005E9048002A3E475F002A424
:1011F3002582F582E5F03583F583D0E0F9E493A306
:10120300C0E0E493C0E022851983851882E0A3FE41
:10121300E0A3F5207808E0A3F608DFFAE0A3FFE0F7
:10122300A3C0E0E0A3C0E0E0A3C0E0E0A3C0E0E02F
:10123300A3C0E010AF0885821885831980088582D2
:1012430018858319D2AFD083D0820214FA8519830B
:10125300851882E0A3FEE0A3F5207808E0A3F60852
:10126300DFFAE0A3FFE0A3C0E0E0A3C0E0E0A3C097
:10127300E0E0A3C0E010AF088582188583198008D9
:10128300858218858319D2AFD083D08222C0E0C370
:10129300E49396087401939618400FE493667008DC
:1012A30008740193661870007019A3A3C3E493969E
:1012B300087401939618A3A3400DD0E0D0E0D0E0CA
:1012C300021168A3A3A3A3A3A3D0E022C0E074F2F6
:1012D300120F28C2D99018B7E0C39400A2D265D0E8
:1012E300334005E0F912246C7F01020F87C0E074DC
:1012F300F2120F28C2DC9018B9E0F9C39400A2D20D
:1013030065D033400312246C80DE740480047402BD
:101313008000CCC0E0EDC0E0E518C39CCCAD195013
:10132300011D10AF068C188D1980068C188D19D2EB
:10133300AF121456D0E0FDD0E0FC2274028000CC42
:10134300C0E0EDC0E0E518C39CCCAD1950011D1001
:10135300AF068C188D1980068C188D19D2AF121414
:1013630012D0E0FDD0E0FC221217FC602512180B0E
:1013730060201218BA70030218B1080808E76670F3
:10138300101819E766700A1819E76670041819E748
:101393006622F422C0E0C0F088F0E4936670080887
:1013A30074019366187000A8F0A3A3700BD0F0D05B
:1013B300E0D0E0D0E0021168A3A3D0F0D0E022D0C7
:1013C30083D082CCC0E0E493A360061214D51470DA
:1013D300FAE493A360061215FA1470FAD0E0FCE461
:1013E30093A3C0E0E493C0E022C008C3E096F508ED
:1013F30008A3E096420808A3E096420808A3E096F3
:101403004208A2D265D033E5087001D3D00822CABE
:10141300C0E0E493A3C582CCC582C583CDC583F068
:10142300A3C582CCC582C583CDC583DAE5D0E0CA26
:1014330022A2E792D65002F40430F70663F0FF05C8
:10144300F0B3400384800384F40430D60563F0FFD3
:1014530005F022CAC0E0E0A3C582CCC582C583CD16
:10146300C583F0A3C582CCC582C583CDC583DAE627
:10147300D0E0CA22C0E0C0D0C082C08375AF009064
:101483000752E02401F0A3E03400F0D083D082D0EF
:10149300D0D0E0327009080808226016181818C660
:1014A300C333C608C633C608C633C608C633C6D553
:1014B300E0EA22C008C3E096F50808A3E0964208D4
:1014C30008A3E096420808A3E09645087001D3D02C
:1014D3000822C0E0E493A3D39C5010E493A3C39CDD
:1014E300400AD0E0D0E0D0E00213DFA3A3A3D0E012
:1014F30022C09FF59FE473D09F22D083D082C09FE8
:10150300E493C0E0740193C0E0740293F59F2274E6
:1015130004800A74038006740280027401C0E0F43C
:101523000412152DD0E0121847222518F58210AFAA
:1015330008F518400C15198008F51840021519D242
:10154300AF8519832200C0D0251810AF08F51850B5
:101553000C05198008F51850020519D2AFD0D02216
:10156300C0E0C0D0E8C0E0A8A8D2AFC2C7E8A2E7F5
:1015730092AFD0E0F8D0D0D0E032BB0102E722C076
:1015830082C08389828A83BB0003E08002E493D014
:1015930083D082226017080808C6A2E713C618C6BC
:1015A30013C618C613C618C613C6D5E0E9226016BB
:1015B300080808C6C313C618C613C618C613C61828
:1015C300C613C6D5E0EA222518F8E43519F9222511
:1015D30018FAE43519FB222518FCE43519FD22C35A
:1015E300E0C696F608A3E0C696F608A3E0C696F60C
:1015F30008A3E0C696F622C0E0E493A36C7009D07A
:10160300E0D0E0D0E00213DFA3A3D0E0222518103E
:10161300AF08F518400C15198008F5184002151984
:10162300D2AF22C3E09608A3E09608A3E09608A3EE
:10163300E096A2D265D03322E76670100809E76608
:10164300700A0809E76670040809E76622E0667015
:101653001008A3E066700A08A3E066700408A3E01C
:101663006622181818E60846087009E62608700569
:10167300E633F4220822C3E4939608740193960890
:1016830074029396087403939622191919E709476C
:10169300097009E727097005E733F4220922C3E03B
:1016A30096F008A3E096F008A3E096F008A3E0966E
:1016B300F022C3E697F60809E697F60809E697F6D7
:1016C3000809E697F622181818E4C396F608E49674
:1016D300F608E496F608E496F622E026F608A3E078
:1016E30036F608A3E036F608A3E036F622E627F638
:1016F3000809E637F60809E637F60809E637F62259
:10170300E493F608740193F608740293F6087403DD
:1017130093F622E657F60809E657F60809E657F660
:101723000809E657F622E056F608A3E056F608A3A2
:10173300E056F608A3E056F622E647F60809E64720
:10174300F60809E647F60809E647F6227004226020
:101753000D18C6C333C608C633C6D5E0F41822E64F
:1017630067F60809E667F60809E667F60809E66713
:10177300F622E026F008A3E036F008A3E036F008EE
:10178300A3E036F022E056F008A3E056F008A3E009
:1017930056F008A3E056F022E4C397F709E497F75D
:1017A30009E497F709E497F722600D08C6A2E71347
:1017B300C618C613C6D5E0F322C6F4C608C6F4C6D7
:1017C30008C6F4C608C6F4C622C3E09608A3E0968A
:1017D30008A3E09608A3E09622C3E7960809E796D4
:1017E3000809E7960809E7962275D00075813F75C9
:1017F300180175190400021036E6084608C313469B
:1018030008336002E633F422E7094709C3134709A3
:10181300336002E733F422600C08C6C313C618C64C
:1018230013C6D5E0F422E6F008A3E6F008A3E6F039
:1018330008A3E6F022E0F608A3E0F608A3E0F60822
:10184300A3E0F622CAC0E0E6F0A308DAFAD0E0FA91
:1018530022E0FCA3E0FDA3E0FEA3E0FF22EAF0A365
:10186300EBF0A3ECF0A3EDF022E0FAA3E0FBA3E09E
:10187300FCA3E0FD22E8F0A3E9F0A3EAF0A3EBF078
:1018830022ECF0A3EDF0A3EEF0A3EFF022E0F8A337
:10189300E0F9A3E0FAA3E0FB22E5C754F84401F51D
:1018A300C77901222518F582E43519F58322E72744
:1018B30019471947194722E626184618461846229B
:1018C300C2AF75D69F020000221214FD38D505124F
:1018D30014FDA2D5051214FD08D7051214FD02B29A
:1018E300071214FD89BC051214FDDBBC051214FD9F
:1018F30037BD051214FDC5BD051214FD21BE051229
:1019030014FD4BC1051214FD79C3051214FDA6C4C1
:10191300051214FDCE82071214FD3883071214FD3D
:101923005983071214FD9783071214FDDC830712F2
:1019330014FD0284071214FD0B84071214FDB984ED
:10194300071214FD1D85071214FD89AB071214FD40
:101953005CB1071214FD77B1071214FD64CA0412B7
:1019630014FD43CB041214FD43CC041214FD17CD14
:10197300041214FDF9CF041214FD5DD0041214FDFA
:10198300F0D1041214FDA8D2041214FDB9D3041229
:1019930014FD44D5041214FD0080061214FD0E80BC
:1019A300061214FD1F81061214FDCF81061214FDC9
:1019B3005B83061214FDA485061214FDD1FA0612E8
:1019C30014FD5BFB061214FD66FC061214FD82FC7B
:1019D300061214FD77A7071214FD88A7071214FD3A
:1019E3004DA8071214FD5CA8071214FD67A807127F
:1019F30014FDF67F001214FD9AB2071214FD76ADA2
:101A0300071214FD86AD071214FD9BAD071214FDDA
:101A130001AE071214FD87A9071214FD0AAA0712C3
:101A230014FD70AA071214FD1592071214FD5092AB
:101A3300071214FDAC92071214FD0493071214FD50
:101A43008B93071214FDC793071214FD87B2071275
:101A530014FD97B2071214FD01E3061214FD64E3AB
:101A6300061214FDB3E3061214FDE0E3061214FD9F
:101A730036E4061214FD9EB1071214FD038B071200
:101A830014FD4D8B071214FDE38B071214FD698CB3
:101A9300071214FD9A8C071214FDB28C071214FD61
:101AA300268D071214FD3C8D071214FD4F8D07126E
:101AB30014FD598D071214FD16A9051214FD70AEFD
:101AC300051214FDA2AE051214FDCEAE051214FDCF
:101AD3005BAF051214FD42B1051214FD7EEC041236
:101AE30014FDEAEC041214FD9AED041214FD65EEE4
:101AF300041214FDBBEF041214FDA9F0041214FD2B
:101B0300B0F1041214FDAEF3041214FDE1F3041258
:101B130014FD4BF4041214FD72F4041214FDEFF5DA
:101B2300041214FD61F6041214FD96F6041214FD5A
:101B3300AAF6041214FD20F7041214FD3AF7041256
:101B430014FDB1F9041214FD12FB041214FD19FD66
:101B5300041214FD9BB5061214FDC7B5061214FD3D
:101B630038B8061214FD78B8061214FDB8B8061278
:101B730014FDCCB8061214FDE5B8061214FDD6B94F
:101B8300061214FD7BBA061214FD8FBA061214FD59
:101B9300DC9F071214FD00A0071214FD19A0071201
:101BA30014FD4BA0071214FD7BA0071214FDA8A07F
:101BB300071214FD0AA1071214FD19A1071214FD3F
:101BC30023A1071214FD30A1071214FD6D8807121B
:101BD30014FD8D88071214FDCC88071214FDE788C5
:101BE300071214FD0689071214FD6C89071214FDF0
:101BF3007589071214FDD289071214FDF68907129D
:101C030014FDB78A071214FDC48A071214FDD58A7E
:101C1300071214FD47B0071214FD5FB0071214FD3D
:101C23008BB0071214FD6DC9061214FDC7CA061244
:101C330014FDD5CA061214FDE8CA061214FDFDCA26
:101C4300061214FD12CB061214FD25CB061214FD49
:101C530099CB061214FDFECB061214FDA0CC06127E
:101C630014FD64CD061214FD74CD061214FD83CD4C
:101C7300061214FD47AC071214FD6BAC071214FDDA
:101C830093AC071214FDBBAC071214FDC1FD061281
:101C930014FDE8FD061214FD06FE061214FD79FE7E
:101CA300061214FD9A85071214FDB385071214FD5D
:101CB300BF85071214FDD385071214FDF1850712A2
:101CC30014FDFB85071214FD0586071214FD188603
:101CD300071214FD9E86071214FD1387071214FDC5
:101CE3004287071214FD9087071214FDDF8707123E
:101CF30014FDFA87071214FD0488071214FD1588D2
:101D0300071214FD5888071214FDACAF071214FD17
:101D130000C6051214FD2AC6051214FD47C6051296
:101D230014FD5AC6051214FD70C6051214FDCEC665
:101D3300051214FD06C7051214FDFACA051214FD97
:101D43003FCC051214FD72CC051214FDD5CC05123F
:101D530014FD35CE051214FD5DCE051214FD72CEB1
:101D6300051214FD82CE051214FDC6CE051214FD14
:101D730021CF051214FD31CF051214FD27A507123B
:101D830014FD41A5071214FD69A5071214FD82A5D0
:101D9300071214FDA6A5071214FDC4A5071214FD0E
:101DA300DBA5071214FD09A6071214FD24A60712CA
:101DB30014FDD4B0071214FDBBEA061214FDCBEADE
:101DC300061214FDD0EB061214FD02EC061214FDEC
:101DD30028EC061214FD4BEC061214FD62EC0612FD
:101DE30014FD9CEC061214FD01ED061214FD43EDE7
:101DF300061214FD82ED061214FDB3ED061214FD56
:101E0300EAED061214FD7B8D061214FD518E0612A7
:101E130014FD7C8E061214FD998E061214FD948F08
:101E2300061214FDD68F061214FD4490061214FDFB
:101E33009690061214FDFE90061214FDE091061210
:101E430014FDB992061214FDF6E6061214FD4BE7D3
:101E5300061214FD9DE7061214FDDEE7061214FDBB
:101E6300F1E7061214FD29E8061214FD90E80612A4
:101E730014FD26E9061214FD54E1051214FD7FE159
:101E8300051214FD4AE2051214FD91E2051214FD38
:101E930022E3051214FD9BE6051214FD0EE805125C
:101EA30014FD0080031214FD4080031214FD3F82D1
:101EB300031214FD6582031214FD5185031214FDF0
:101EC3008D86031214FD208A031214FD8A8A0312DD
:101ED30014FD248B031214FD778B031214FDDF8B87
:101EE300031214FD2F8C031214FD618C031214FDD5
:101EF300648C031214FD748C031214FD868C03127C
:101F030014FDCB8C031214FD888E031214FDF58E81
:101F1300031214FD408F031214FDDC8F031214FD12
:101F23006890031214FD5892031214FDFF930312D9
:101F330014FD9E94031214FDB596031214FD93979A
:101F4300031214FD4799031214FD6B9E071214FD2F
:101F5300859E071214FDC79E071214FDFA9E0712F1
:101F630014FD149F071214FD2D9F071214FD6F9F7C
:101F7300071214FDA49F071214FDBC93061214FD4F
:101F8300ED93061214FD4194061214FD11950612E9
:101F930014FD4795061214FD7495061214FDC6959B
:101FA300061214FDE495061214FD0896061214FD9C
:101FB3002E96061214FDB096061214FD3A970612D9
:101FC30014FD6B97061214FDB197061214FDCF97FB
:101FD300061214FDFD97061214FD2198061214FD36
:101FE3005798061214FDB698061214FDD8980612D7
:101FF30014FD3799061214FD7099061214FD7E998B
:10200300061214FDDAB2051214FD14B3051214FD01
:1020130053B4051214FD83B5051214FD63BC0512F8
:1020230014FDAC99061214FD959A061214FDD69A66
:10203300061214FD859B061214FD7FA8071214FDDA
:10204300F0A8071214FD53A9071214FD35950512C4
:1020530014FD5496051214FDCC97051214FD139923
:10206300051214FD6B99051214FDAB99051214FDAD
:10207300B999051214FDE999051214FD799A05120F
:1020830014FD169B051214FD229C051214FDBE9D22
:10209300051214FD449F051214FD7DF1061214FD73
:1020A300D8F1061214FD11F2061214FDF9F306120B
:1020B30014FD79B0061214FDBEB0061214FDF4B07F
:1020C300061214FD1BB2061214FDC0B3061214FD52
:1020D3002DB4061214FD7DB5061214FDEFA10412F2
:1020E30014FDF3A2041214FD63A3041214FD49A406
:1020F300041214FD95A4041214FDFDA7041214FD8B
:1021030045A8041214FD12A9041214FD5CA90412BB
:1021130014FD93A9041214FDFCA9041214FD41AA91
:10212300041214FD93AA041214FDE5AA041214FD6B
:102133003EAB041214FDA1AB041214FD0FAC041248
:1021430014FD64AC041214FD55AD041214FDBAADB4
:10215300041214FD99AE041214FD5CFE021214FD68
:1021630067FE021214FDA4FE021214FDC9FE021240
:1021730014FDE5FE021214FDFAFE021214FDBCCD9D
:10218300061214FDCBCE061214FD73CF061214FDF6
:102193006DD0061214FD8ED0061214FDA8D00612BF
:1021A30014FD4AD1061214FD7BD1061214FDFBD196
:1021B300061214FD7CD8051214FDDED8051214FD99
:1021C30072D9051214FD01DB051214FD42DE05125E
:1021D30014FD58DE051214FD1ADF051214FD3AA191
:1021E300071214FD4CA1071214FD60A2071214FD7F
:1021F30063A2071214FDE1A3071214FD17A407122B
:1022030014FD31A4071214FD73A4071214FD83A453
:10221300071214FD1DA5071214FDE3F8051214FDA2
:10222300EDF8051214FD27F9051214FD90F90512B6
:1022330014FDADF9051214FD4FFA051214FD58FAF9
:10224300051214FD9DFA051214FDC6FA051214FDBC
:10225300D3FA051214FD44FB051214FDCFFB05123E
:1022630014FD1DFC051214FD5BFC051214FDC0FCDE
:10227300051214FDE3FC051214FD5AFD051214FDAD
:10228300B1FD051214FDECFD051214FD21FE05122E
:1022930014FD33FE051214FD45FE051214FD64FE04
:1022A300051214FD6DFE051214FD28FF051214FD21
:1022B30074FF051214FDB2FF051214FDA1BF06122F
:1022C30014FDE1C0061214FD04C1061214FD15C16C
:1022D300061214FD14C3061214FD34C3061214FDB2
:1022E300E4FF011214FDC7F7061214FD0BF80612E2
:1022F30014FD53F8061214FD39FA061214FDC8FA38
:10230300061214FD0BAE071214FD0080041214FD17
:102313002481041214FD5E81041214FD0883041247
:1023230014FD3283041214FDA785041214FDE785FE
:10233300041214FD7D87041214FD1A88041214FD7F
:102343006C88041214FD0F89041214FD47890412CA
:1023530014FD8989041214FDF88A041214FD468CB5
:10236300041214FD778E041214FDA58E041214FDBD
:10237300CC8E041214FDD58E041214FD258F041285
:1023830014FDB78F041214FDE692041214FD699331
:10239300041214FDE4FF061214FDFDDE061214FD03
:1023A30013DF061214FDB7DF061214FDF6DF061263
:1023B30014FD13E0061214FD44E0061214FD91E02F
:1023C300061214FDC4E0061214FDFFE0061214FD0C
:1023D300F4E2061214FD86A5061214FD2CA70612BC
:1023E30014FD6DA8061214FD85A8061214FD23D250
:1023F300061214FD5AD3061214FDB9D4061214FDA5
:10240300D8F6031214FD04F7031214FD3EF703126A
:1024130014FD04FA031214FD5CFA031214FDA6FA68
:10242300031214FDCAFA031214FD47FC031214FD30
:10243300A4FC031214FD01FF031214FDD1E90512DC
:1024430014FDFAEA051214FDF9EB051214FD3DED36
:10245300051214FD5CEE051214FD2EEF051214FD9A
:102463001594071214FDE394071214FDABEC02124A
:1024730014FD70ED021214FD7BED021214FD2CEE1F
:10248300021214FD8BEE021214FD87F0021214FDEA
:10249300F7F0021214FDFCF2021214FD35F30212DE
:1024A30014FDDBF5021214FD03F6021214FD85F68A
:1024B300021214FD00F7021214FD63F8021214FD58
:1024C300C0F8021214FD3EF9021214FD3AFE021284
:1024D30014FD6AC4061214FD91C4061214FD9FC6AE
:1024E300061214FDC6C6061214FD1BC7061214FD00
:1024F300E9C7061214FD61C8061214FD6C8D07129C
:1025030014FD848D071214FD838E071214FD8A8E29
:10251300071214FDB38E071214FD89AA071214FDC6
:10252300E8AA071214FD26AB071214FD67AB0712C6
:1025330014FD49AB061214FD6FAB061214FDAFACCC
:10254300061214FDA4AD061214FDCBAD061214FD44
:1025530064AE061214FDB8AE061214FDD3AF061214
:1025630014FD9B9F061214FD3DA0061214FD5DA1F0
:10257300061214FDAFA2061214FD6DA4061214FD7B
:10258300B3E1041214FD07E2041214FD31E3041253
:1025930014FD5DE4041214FD4BE5041214FDE7E79A
:1025A300041214FD9EE9041214FDE9E9041214FD5A
:1025B300F7EB041214FD4BFC011214FD9EFC0112F7
:1025C30014FD21FD011214FDADFF011214FD90A2B3
:1025D300071214FD0AA3071214FD25A3071214FD05
:1025E300A799071214FDAA9A071214FD129B07124A
:1025F30014FDF097071214FD3B98071214FD8B98F6
:10260300071214FDA698071214FDE49C071214FD8B
:102613003F9D071214FD3B9E071214FDC48F071242
:1026230014FD2D90071214FDA390071214FDBE9004
:10263300071214FDB693041214FD2794041214FD1B
:102643008E94041214FD1295041214FD0D960412B7
:1026530014FD4196041214FD6298041214FD51995D
:10266300041214FDB999041214FDF499041214FD13
:102673002E9B041214FDD69B041214FD1F9C0412FE
:1026830014FD899C041214FDDA9C041214FD949E1B
:10269300041214FDCE9E041214FD7DAE071214FD28
:1026A300BCAE071214FDD1F1051214FD2BF2051275
:1026B30014FDE7F2051214FD10F4051214FD40F4A5
:1026C300051214FD62F5051214FDD9F5051214FD6A
:1026D30057F6051214FD3CF7051214FD27B2071235
:1026E30014FD3AB2071214FD57A6071214FD66A68D
:1026F300071214FDC6A6071214FDDEFF051214FD12
:10270300E4FF051214FDEAFF051214FD55D6041269
:1027130014FDC0D6041214FD99D7041214FD1EBA79
:10272300031214FD5FD9041214FD0DDA041214FD13
:10273300E6DA041214FDD5DB041214FD2BDD0412BA
:1027430014FD7EDF041214FDE841001214FDF44170
:10275300001214FD5642001214FD6042001214FDD3
:10276300F342001214FD2F43001214FDEB43001239
:1027730014FDFE43001214FD4E44001214FDB84430
:10278300001214FD1D45001214FD5345001214FDE3
:10279300D545001214FD8447001214FD5849001258
:1027A30014FD3E4A001214FD904B001214FDE64D39
:1027B300001214FD4F4F001214FDD6D4051214FD60
:1027C3009454001214FD8255001214FD2056001279
:1027D30014FD4C56001214FDE856001214FDFD566C
:1027E300001214FD2157001214FD8757001214FD27
:1027F300A457001214FDCE57001214FD4B590012BA
:1028030014FD6C59001214FDF259001214FD985A6C
:10281300001214FDDF5A001214FD525B001214FD66
:10282300DE5B001214FD425C001214FDA25C001278
:1028330014FD385D001214FDB35D001214FDE65D56
:10284300001214FD485E001214FDAA5F001214FD6D
:102853001A60001214FDC960001214FD1F620012F9
:1028630014FDB762001214FD2363001214FD6665A4
:10287300001214FDF266001214FD1D67001214FD10
:102883000369001214FD996A001214FDA26B001271
:1028930014FDFBAF041214FDB2B0041214FDB9B160
:1028A300041214FD37B2041214FD79B3041214FD9B
:1028B3009AB3041214FD52B4041214FDFDB40412AD
:1028C30014FDDDB8041214FDF9BA041214FD60BC42
:1028D300041214FD18B1071214FD829A031214FD99
:1028E300DA9A031214FD609B031214FD729C031207
:1028F30014FDBF9C031214FDA59D031214FDBC9D82
:10290300031214FD0E9E031214FD469E031214FDC2
:10291300599E031214FDAF9E031214FD089F031268
:1029230014FD209F031214FD90A1031214FD27A28E
:10293300031214FD51A2031214FD89A2031214FD04
:10294300AFA4031214FDF5A4031214FD3FA5031253
:1029530014FD13A6031214FD54A6031214FD77A647
:10296300031214FDBEA6031214FDE0A6031214FD08
:1029730061A7031214FDEEA7031214FD48A8031266
:1029830014FD90A8031214FD05AA031214FD81ACD3
:10299300031214FD0EAD031214FD3AAE031214FD1F
:1029A30075AE031214FD42AF031214FD82AF03127E
:1029B30014FD85AF031214FD8FAF031214FDA2AFF4
:1029C300031214FD23B0031214FD59B0031214FDB6
:1029D30085B0031214FDACB0031214FDD0B0031282
:1029E30014FD67B1031214FD80B1031214FDB3B1DA
:1029F300031214FDD3B1031214FD10B2031214FD1C
:102A030047B2031214FD46B3031214FD79B4031243
:102A130014FD6C7F001214FD787F001214FDBE7F3D
:102A2300001214FDF37F001214FD25CD031214FDD3
:102A330048CD031214FD1FCE031214FD68CE0312FA
:102A430014FDC0CE031214FD1ACF031214FD66CF7A
:102A5300031214FDDCCF031214FD6AD0031214FD1C
:102A6300E2D0031214FD25D1031214FD02D5031283
:102A730014FD49D7031214FD7CD7031214FDFAD7B2
:102A8300031214FD7FD8031214FD57D9031214FD4A
:102A930081DA031214FD6CDB031214FD49DC03120B
:102AA30014FD85DD031214FD29DF031214FDBBDFC2
:102AB300031214FDC2E1031214FDDD6F001214FDB5
:102AC3007D70001214FDE770001214FD8E71001268
:102AD30014FDF271001214FD2573001214FD4B74E2
:102AE300001214FDC474001214FD9C76001214FD30
:102AF3003C77001214FDDF77001214FD3E780012BC
:102B030014FDF978001214FDBF7A001214FD627CE3
:102B1300001214FD0E7D001214FD237E001214FD1D
:102B230052E2031214FDCAE2031214FD12E303126C
:102B330014FD56E3031214FD9FE3031214FDE9E3AE
:102B4300031214FD1EE4031214FD9CE4031214FD8E
:102B5300F6E4031214FD4FE6031214FDD8E6031244
:102B630014FD34E7031214FD4EE7031214FD75E759
:102B7300031214FDCDE7031214FD37E9031214FD0C
:102B830056E9031214FD7EEA031214FDFBEA031255
:102B930014FD68EB031214FDCAEB031214FD7AEC67
:102BA300031214FD4CEE031214FD37EF031214FD50
:102BB30031F0031214FD37F1031214FD53F2031223
:102BC30014FD61F2031214FD3AF3031214FDDAF358
:102BD300031214FD1EF4031214FD33F4031214FD47
:102BE30044F5031214FDE7F5031214FD3FF6031237
:102BF30014FD0080071214FD3981071214FDF681BC
:102C0300071214FD5A82071214FDA3F4061214FDD1
:102C1300BEF4061214FD02F5061214FD28F5061281
:102C230014FD4EF5061214FD66F5061214FDC9F5E2
:102C3300061214FDDEF5061214FD00F7061214FD4C
:102C430009F7061214FD12F7061214FD1BF70612FC
:102C530014FD25F7061214FD7BD6061214FD5BDA6C
:102C6300061214FD60DA061214FD62DA061214FD70
:102C73007D96071214FD69B2071214FDE9AE07121F
:102C830014FD8EB0071214FDD6B1071214FDC9DA74
:102C9300061214FDE0AC071214FD0AAD071214FD71
:102CA300589B071214FDD7FF041214FD4BB20712F1
:102CB30014FD4AAF071214FDF7AF071214FD42EEDD
:102CC300061214FD5CD8011214FDB3D8011214FDD1
:102CD3001FD9011214FDABD9011214FD61DA0112DF
:102CE30014FDA9DA011214FDC2DA011214FDE5DAAA
:102CF300011214FD07DB011214FD45DB011214FD63
:102D030094DB011214FDBFDB011214FD1DDC011263
:102D130014FDC4DC011214FD6CDD011214FDE8DDA9
:102D2300011214FDB5DE011214FD01DF011214FDC1
:102D330089DF011214FDC2DF011214FD53E00112F9
:102D430014FD64E0011214FDD6E0011214FD6FE1DD
:102D5300011214FDD9E1011214FDC9E2011214FD9F
:102D6300EEE2011214FDEBE3011214FDF8E301128C
:102D730014FD01E4011214FDEAE5011214FD06E756
:102D8300011214FD97E7011214FD08E8011214FD66
:102D9300E2E9011214FDADED011214FDC1ED0112C2
:102DA30014FDD1ED011214FDDBED011214FDE4ED70
:102DB300011214FDEDED011214FDF7ED011214FDE6
:102DC30026EE011214FD54EE011214FD5FEE011202
:102DD30014FD83EE011214FDA7EE011214FD19EF89
:102DE300011214FD62EF011214FD7EEF011214FDB6
:102DF300EFEF011214FD3BF0011214FD84F00112F8
:102E030014FDC2F0011214FD43F1011214FD0EF37F
:102E1300011214FDADF3011214FD75F4011214FD3A
:102E230001F7011214FD56F7011214FD7EF701128A
:102E330014FDB1F8011214FDF6F8011214FD4BF95B
:102E4300011214FDF9F9011214FD9EFA011214FD89
:102E5300D3FA011214FD73FB011214FDEFFB0112EF
:102E630014FD2687011214FD5887011214FD8C8767
:102E7300011214FD4089011214FD148A011214FD7C
:102E8300738A011214FD898B011214FDD58B011273
:102E930014FD728E011214FDE790011214FD33929A
:102EA300011214FDCB92011214FDD792011214FDED
:102EB3002093011214FD5393011214FDDF930112A9
:102EC30014FDF194011214FD3296011214FD319791
:102ED300011214FD5B97011214FDC697011214FD34
:102EE3001F98011214FD9298011214FDC89A011241
:102EF30014FD4E9C011214FD399D011214FD879E91
:102F0300011214FDBFA0011214FDB6A3011214FD9A
:102F1300C5A3011214FD59A4011214FD04A5011245
:102F230014FD47A5011214FD90A5011214FDE0A59F
:102F3300011214FD4DA6011214FDB9A6011214FDD0
:102F4300D5A6011214FD04A7011214FD43A7011213
:102F530014FD2BA8011214FDDAA8011214FD51ABC4
:102F6300011214FD83AC011214FD52AD011214FDC4
:102F7300D4AD011214FD16B2011214FD2DB20112CB
:102F830014FD5CB2011214FDB7B2011214FDEAB2D2
:102F9300011214FD45B3011214FD61B3011214FDB6
:102FA300C2B3011214FD12B4011214FDC1B4011213
:102FB30014FD84B5011214FD4CB6011214FD98B82A
:102FC300011214FD24BA011214FD7BBB011214FD7E
:102FD30097BC011214FD9ABC011214FDC9BC011265
:102FE30014FDB8BE011214FD81BF011214FDC2BF4E
:102FF300011214FD18C1011214FD8EC1011214FD3A
:10300300C1C1011214FD25C2011214FD46C40112EF
:1030130014FDA5C4011214FD7BC5011214FD8FC557
:10302300011214FDA3C5011214FDD0C5011214FD34
:1030330000C6011214FDA4C7011214FDA1C8011298
:1030430014FDEFC8011214FD16C9011214FDF1C9D4
:10305300011214FD97CA011214FD1DCC011214FDB7
:1030630064CC011214FDD1CC011214FD26CE011241
:1030730014FDCFCE011214FD03CF011214FD1BCF9B
:10308300011214FDBECF011214FD3AD2011214FD38
:10309300E2D3011214FD06D4011214FD24D401124B
:1030A30014FDF0D4011214FD3ED8011214FD00806A
:1030B300021214FD3280021214FDB284021214FDB6
:1030C3000185021214FD4785021214FDEA850212DE
:1030D30014FD4F86021214FD9386021214FDFA8723
:1030E300021214FD2689021214FD238D021214FD0F
:1030F300A28D021214FDC88E021214FD2B8F021230
:1031030014FD7790021214FD0F93021214FD9C9389
:10311300021214FDA693021214FDCE93021214FDA3
:103123009694021214FD2B95021214FD549502126B
:1031330014FD8195021214FDD697021214FDA39873
:10314300021214FDE298021214FD6499021214FD96
:103153000F9A021214FD419A021214FD8C9A021264
:1031630014FDC59A021214FD149B021214FD709BE8
:10317300021214FDF29B021214FD579C021214FD5D
:10318300CF9C021214FD789E021214FD709F02124E
:1031930014FDB1A0021214FD05A4021214FD61A6D0
:1031A300021214FD1AA7021214FD62A7021214FDE3
:1031B30043A9021214FD7EA9021214FD87A902126B
:1031C30014FD90A9021214FD9BA9021214FDBAA9C1
:1031D300021214FD6DAA021214FDCAAA021214FDF2
:1031E300D4AA021214FDDEAA021214FD2AAB0212A3
:1031F30014FD72AB021214FD76AC021214FD0FAD76
:10320300021214FDD6AD021214FD00AF021214FD1A
:103213002BB0021214FD21B1021214FD39B10212B6
:1032230014FD6DB1021214FD8BB1021214FDD3B162
:10323300021214FD0CB2021214FDC3B2021214FDE9
:1032430084B3021214FDF7B3021214FD73B4021215
:1032530014FD0FB5021214FD35B6021214FDF1B6BA
:10326300021214FD91B7021214FD7EB8021214FD6E
:10327300D6B8021214FD9CB9021214FDBFB9021292
:1032830014FDD4BA021214FD1FBB021214FD7BBB42
:10329300021214FDE3BB021214FD07BC021214FD5B
:1032A3002FBC021214FD74BC021214FD98BC02124E
:1032B30014FD1CBD021214FD05BE021214FD4ABE0C
:1032C300021214FD73BE021214FD11BF021214FD8B
:1032D3007CBF021214FD8ABF021214FDB6BF021294
:1032E30014FD97C0021214FDB58A051214FDED8A70
:1032F300051214FD0E8B051214FD508B051214FDDF
:10330300B48B051214FDBE8B051214FDCE8B051272
:1033130014FD058C051214FDAE8F051214FD769174
:10332300051214FD5A93051214FDFC93051214FDA6
:103333008694051214FD87C2021214FDEBC2021219
:1033430014FD49C3021214FD94C3021214FDAFC34A
:10335300021214FDD6C3021214FDF3C3021214FDAC
:10336300FFC3021214FD90C5021214FDA9C5021277
:1033730014FD25C6021214FD38C6021214FD48C6F8
:10338300021214FDECC6021214FD58C8021214FDF9
:103393006BC9021214FD0BCA021214FD15CA0212E4
:1033A30014FD94CA021214FDA5CA021214FDE4CA44
:1033B300021214FD12CB021214FDDFCB021214FD14
:1033C30036CC021214FD6FCC021214FDC5CC0212CE
:1033D30014FDE3CC021214FD31CD021214FDFCCD19
:1033E300021214FD4ACE021214FD97CE021214FDEE
:1033F3001ACF021214FD44CF021214FD7ACF021227
:1034030014FD89CF021214FDE8CF021214FD60D01F
:10341300021214FDA1D0021214FDF1D0021214FD08
:103423001CD1021214FD36D1021214FD50D1021226
:1034330014FD25D2021214FD2FD2021214FD6AD2FA
:10344300021214FD7AD2021214FD83D2021214FD69
:10345300D4D2021214FDE8D2021214FD0AD40212CD
:1034630014FD1FD4021214FDB2D4021214FD26D58A
:10347300021214FDCBD5021214FDD6D5021214FD8F
:1034830036D7021214FD52D7021214FD9ED7021230
:1034930014FD0CD8021214FD3ED8021214FD58D8A4
:1034A300021214FD9AD8021214FDEDDA021214FD71
:1034B30085DB021214FDFCDB021214FD59DE02123D
:1034C30014FD71DE021214FD74DE021214FD80DE9F
:1034D300021214FD94DE021214FD9CDE021214FD8E
:1034E300D3DE021214FDC7DF021214FD51E00212F3
:1034F30014FDD3E0021214FD53E1021214FD2AE27B
:10350300021214FD4CE2021214FDE5E2021214FD54
:1035130042E3021214FD45E3021214FDB4E3021266
:1035230014FD00E5021214FD13E6021214FD9EE6DB
:10353300021214FDB1E7021214FD76E8021214FD23
:10354300A7E8021214FDCDE8021214FDD6E8021218
:1035530014FD05E9021214FDB5E9021214FD65EA32
:10356300021214FDD8EA021214FD7BEB021214FDC1
:10357300EEEB021214FD2DEC021214FD76EC021296
:1035830014FD89B9031214FD3CB9031214FDBAB832
:10359300031214FD3FB8031214FDBFB7031214FD49
:1035A30075B7031214FD19B7031214FDC8B603123D
:1035B30014FD8BB6031214FD45B6031214FD0AB6AF
:1035C300031214FD00B6031214FD69D3051214FD92
:1035D30032D2051214FDE3B5031214FD0BB5031229
:1035E30014FD33D1051214FDEAD0051214FD8FB476
:1035F300031214FDAF8A061214FD8788061214FD08
:10360300D887061214FDCA86061214FD8BC904124C
:1036130014FDB1C8041214FDE7C7041214FD56C605
:10362300041214FD1FC6041214FDF1C5041214FD87
:10363300A5C5041214FD0EC5041214FD7EC40412A4
:1036430014FD58C4041214FD0DC4041214FDD7C391
:10365300041214FD5AC3041214FDF5C2041214FD1E
:10366300A4C2041214FDCCC1041214FD3CC1041203
:1036730014FDF0C0041214FD6BC0041214FD26C027
:10368300041214FD0AC0041214FD61CF051214FDC7
:10369300B2BE041214FDBACB031214FD8FC8031279
:1036A30014FD17C6031214FD05C4031214FDC9C388
:1036B300031214FDC3C2031214FD6BC0031214FDE5
:1036C300F7BF031214FD84BE041214FD51BE04128D
:1036D30014FDD5BD041214FDF5BD061214FDBCBEC8
:1036E300031214FD50BC061214FD5EBB061214FD3A
:1036F300A3BA061214FD6A8A051214FD7BBE0312D7
:1037030014FD118A051214FDEC4F001214FDDC891F
:10371300051214FDA789051214FD7389051214FD02
:103723000689051214FDEE88051214FDC9880512D9
:1037330014FD9A85051214FD6D83051214FD6D8128
:10374300051214FDF380051214FDA480051214FD67
:103753005E80051214FD0080051214FD08A70512F2
:1037630014FD8DA6051214FD25A5051214FD19BB24
:10377300031214FDACA3051214FD35A1051214FDAB
:10378300BA9F051214FD5E9F051214FD4F9F05128B
:1037930014FDF0D80400000080FBE4730000000077
:1037A30020011F870000010020011F870000020085
:1037B300200120870000030020011E870000040071
:1037C30042016D800000050042017E80000006007A
:1037D3004201A080000007002001AB800000100020
:1037E30042018F80000011002001BA0A000000404E
:1037F3004201A080000000804201D2810600000047
:103803001011000007000000303300000700100013
:10381300303300000700014020330000070002405E
:103823002033000008000000203300000A000000DD
:10383300E23300000A000100183300000C005500B9
:10384300393300000C001C00423300001100040057
:1038530042330000110043002333000011005100E4
:103863001011000011005500101100001100670035
:103873001811000011006F0018110000120055000C
:103883002101000014000E00422200000004000089
:1038930021040000020400002904000003040000C6
:1038A3002904000005040000290400000C040000A2
:1038B300390400000D040000390400002A0400004C
:1038C3003904000002070000290400000207000277
:1038D30018052487020700033005000002070103CF
:1038E300220539860207020322053D8602070303E8
:1038F300180122870207060318010000040B0000C9
:103903001B052186040B000129050000040B03019C
:1039130029050000040B060129040000040B000222
:1039230021050587040B010221051187040B0202FF
:1039330021050587040B030221050987040B0402F3
:1039430021050587040B050221050D87040B0003E0
:1039530021040000040B000421050587040B010466
:1039630021050F87040B050521050000040B08053D
:1039730021050000040B0B0529040000040B1005AE
:1039830028040000040B000621050587040B01062B
:1039930021051187040B020621050587040B030685
:1039A30021050987040B040621050587040B050679
:1039B30021050B8700000000000001205C37000197
:1039C30002205C37000103205C37010004205C37D0
:1039D300000105002220000006000000000007008F
:1039E3009219000008006624000000000000000097
:1039F3000A00000000000B205A2410000C02F435CA
:103A030000000D00000000000E205C3710010F20A5
:103A13005C37100000000000000000000000000000
:103A230000000000000013007A25000000000000E1
:103A330000001500421E41001600421E50001701EF
:103A43007A2500001801D81850001900CC24000072
:103A53001A00CC2400001B005C2510001C014E1B27
:103A630000011D014E1B00011E00F62410031F015F
:103A7300D83608002000F42600002100CE190000EB
:103A830022009C1E10002300F435000000000000FB
:103A930000000000000000002601FA231000271197
:103AA300422710002809E82300002900A02610005F
:103AB3002A60D61A00032B225A2410002C00D62683
:103AC30010002D02D62610002E01B61900042F0077
:103AD3000E19000830001425100031010000000009
:103AE300320000000000330000000000340000003A
:103AF3000000350000000000360000000000370021
:103B03000000000038000000000039014E1B0001D6
:103B13003A00942600003B00362413003C000000CA
:103B230000003D00000000008F000100AB1687007D
:103B33000100091935000400CE1825000200D2182F
:103B430026000200D41827000200D618280001001E
:103B5300E01829000100E11884000400E21886003F
:103B63000100E6182A000100E7182B000100E818FD
:103B73002C000100EC182D0008008E162E00010009
:103B8300ED182F000100EE1830000100EF1831008E
:103B93000100F01832000100961633000100971659
:103BA30034000100F11836000100981638000100B6
:103BB300F21839000100EB188300020007196300B3
:103BC3000100A81664000100E91865000100EA1865
:103BD3006D000100A9167100080086166600010039
:103BE300061943000100F71844000200F8184500C5
:103BF3000100FA1846000200FB1847000800A0164F
:103C030048000100FD184B000100FE1804000100EC
:103C13000A19A10001000D19370001000C198800D1
:103C230001000B193C00010099163D000100F31837
:103C330049000200FF1867000100AA164D000200A8
:103C430001194E00010003194F00020004193E0040
:103C530001009F1651000100F41852000100F518ED
:103C630053000100F618540001009A1600000000EA
:103C730000000001363601010001020100010301C9
:103C830000010401060605020000070100340801D3
:103C9300000F090401010D0100FF0E0800001702C7
:103CA3000000190100FF1A0100011B0100FE1C01A5
:103CB30000081D0200001F01000120010001210274
:103CC30000002301000F2402000026010001270148
:103CD3000008280200FF2A0100072B0102402C01E3
:103CE30000002D0100012E0100012F0100FF300112
:103CF3000B1D310800003A0100083B01000F3C0195
:103D030000013D0100FF3E040000420400004604A0
:103D130000004A0400004E04000052040000560450
:103D230000005A0400000020202020202020202012
:103D33002828282828202020202020202020202058
:103D43002020202020202088101010101010101088
:103D530010101010101010040404040404040404CC
:103D63000410101010101010414141414141010154
:103D73000101010101010101010101010101010130
:103D8300010110101010101042424242424202023E
:103D93000202020202020202020202020202020200
:103DA300020210101010206A007800222628262E06
:103DB300266C00F000CE25D425DA256B00F000E652
:103DC30025EC252E266600F000E625EC252E266739
:103DD300001400F825FE250426690014000A26169F
:103DE300261026EE22E8039225B025AA25640001B9
:103DF3000000000000C8256300010000000000C8A7
:103E0300256200010000000000C8256100010000D8
:103E1300000000C8257000010000000000C8250153
:103E230003710301030103010301030103220302DD
:103E33000301031003000300030003000300030056
:103E430003000342030003240306030003000304E7
:103E5300031203250323032503230304030403009D
:103E6300030003000344030003000323030003656B
:103E7300032100350381030003050300030003004E
:103E83000300032503230301017101010101011152
:103E93000101013101010101018001100161013BB7
:103EA30000140063017301720162014301000113F5
:103EB3000106013D0135000401120100010001006A
:103EC30001000104010401330133013C01440132C7
:103ED3000136000001000165010001350081010088
:103EE30001050182018301000103007100300160BB
:103EF30000110070003102200350048000100061A3
:103F030000000014006300730072006200430000AD
:103F1300001300060000000000040012000000006F
:103F2300000000000004000400370037003C024496
:103F33000000000000000000006500000035008163
:103F4300000000050000008300000003027102303E
:103F530001600211027002010202020202800210D9
:103F63000261023A00410063027302720262024379
:103F730002000213023800000200020402120200CF
:103F83000200020002000204020402370037003C70
:103F930002440200023900000200026502000235F9
:103FA300028102000205028202830200023600013E
:103FB30000060000000F00000000000000000000E9
:103FC30000000003FFFF00000403FFFF0000FFFFEA
:103FD3000FF4010005C4040320000100000B0000DE
:103FE30000000000000003010F00000000000000BB
:103FF30000000000000000000000000000000000BE
:1040030000000000000000000000003E287A284461
:104013002866274A2880284A288C28502866274A59
:10402300288028562866275C286627622866276822
:104033002866276E2866277428662700000000007C
:10404300000000000000000000000000000000006D
:10405300000000000000000000000000000000005D
:10406300000000000000000000D22A1300A22A0171
:1040730000D22A0200482A03004E2A0400542A05CB
:10408300005A2A0600662A30007E2A33008A2A3420
:1040930000902A1100962A14009C2A1500782AFF02
:1040A300FF00000A000000020000000400000008F6
:1040B300000000100000002000000040000000800D
:1040C30000000000010000000200000004000000E6
:1040D300080000001000000020000000400000075E
:1040E300ECFDFDFDECDCDCCCBCACAC9C9C8C7C7CAA
:1040F3006C6C5C5C5C4C4C3C3C2C2C1C1C510010D0
:104103000000550010000067001800006F00180041
:10411300000400420000430023000003EAF5E5D554
:10412300D5C5B5A59595858575756565555545457C
:10413300353525251515050A203102F030050231E4
:1041430007F6300CD8300DE430FF000000160F00E6
:10415300000B150B020002220F3300000E5A696791
:10416300426565416C6C69616E63653039010305B5
:1041730007090B0D0F00020406080A0C0D30301658
:10418300181920231A1C1E3000034A49434E181ADB
:1041930025050200011916181616182303000C0E24
:1041A300020B040B0A0708000F30301718192130CF
:1041B3001B1D1F3000393D3F373C3C362C442D023C
:1041C3000402010101010902E803000000BE040A20
:1041D300E8030E001E1E040903100A040C04082839
:1041E3000C05080304C082C083E9901572F00243F2
:1041F300F774F4120E568A088B09EB5480604D80D5
:104203000EEEFAEFFB123708EEFAEFFB12224490A0
:104213001572E0F91222568A0A8B0BAE0AAF0BEE27
:104223004F60208E828F83E0641A60D5EEFAEFFB35
:10423300122760E9F974FF6960CEEEFAEFFB1222F0
:104243004A80CCAA08E5096480FB80047A007B00DD
:104253000245C974F7120E567AFF02561874F61205
:104263000E56E9FEEAFF7A047B0012491FA808A94B
:1042730009EA496034EF8A828B83A3A3A3F0EE8A11
:10428300828B83A31242E4E4F0A3F090157F1249DA
:1042930044700990157FE8F0A3E9803FE0FB8A8230
:1042A3008B83A3A3A3E06F700479008031EAFCEB56
:1042B300FD8A828B8312494470E474FF6F700C8C07
:1042C300828D831242EBE4F0A3801090157F125D80
:1042D300A990157F1242EBEAF0A3EBF079010257A4
:1042E30010A3F08A828B83221268FD88828983223D
:1042F300C082C083EA126B903BF583E0FA90157F8E
:10430300800488828983125BD8601C88828983A396
:10431300A3A3E0FBEA6B600574FF6B70E5888289F9
:1043230083A3A3E0F9800279FF0243F774F4120E2A
:1043330056EAFEEBFF8A82F583125DA9122760E934
:10434300F50874FF6970030243E67A197B001222B1
:104353003EEA4B70030243E68A828B83743412591C
:1043630041A3A3EA2402FCE43BFD74061214568E17
:10437300828F83124FD51268D88A828B83A3A3A31B
:10438300A3A3A3A3A3ECF0A3ED124FE5A3A3A3A3BD
:10439300A3EA240AFCE43BFD740C1214568E828FAC
:1043A30083125E43C8126B9038F583E0C0E0EA24C1
:1043B30016F582E43BF583D0E0F0EE240CF8E43FFD
:1043C300F98882F5831268DCEA2417F582E43BF569
:1043D30083ECF0A3EDF088828983E4F0A3F0A908CD
:1043E30012224A79010245C9C082C08390157D1209
:1043F3005DA98000D083D0820214FA74F4120E56A1
:104403008A088B09ECFEEDFF7A0812449C7004794C
:1044130010803512450EA31244F8740C1218A7121B
:104423006EE3A3A3A3A3126FD5901577124944900B
:10443300157760111249278003EAFCEB12493F709C
:10444300F88C828D831244AC0245C974F4120E5663
:1044530089088A09ECFEEDFF7A0A12449C700479FC
:10446300108033124503E4F0A31244B2E509124469
:10447300B2A3EEF0A3EFF0901579124944901579A9
:1044830060111249278003EAFCEB12493F70F88C54
:10449300828D831244AC0245C97B001222F28A0A40
:1044A3008B0BA80AA90BEA49221268FD7900221294
:1044B3005609A3A32274F4120E5689088A09ECFE46
:1044C300EDFF7A0612449C7004791080251245038F
:1044D3001244F890157B12494490157B60111249E0
:1044E300278003EAFCEB12493F70F88C828D83121C
:1044F30044AC0245C9E50912560EEEF0A3EFF022D3
:1045030012450E8A828B83A3A3A3228A828B83E420
:10451300F01242E4A3A3E508F02274F2120E56EA65
:10452300FEEBFF8C088D091227CC8B0DA90DEA49F0
:1045330060198A828B83A3A3A3EEF0A3EF1256051F
:10454300E508F0A3E509F0790080027901025D9F97
:1045530074F4120E5674F7121610E9FE851882854C
:1045630019837401F0EC7006EDC39406404D740397
:104573006A4B604774011215CA880A890B780A12BC
:10458300151A7C127D007A007B00EE1245CE1215BF
:1045930048E9601CE4F50AF50B780A12151A74034E
:1045A3001215DA74021215D2122814740212154865
:1045B300851882851983E06401700479018002798A
:1045C3000074091215487F0402120AF91227D274E3
:1045D300022274E8120E5674FA12161089128A1601
:1045E3008B178C088D091237268A148B15EA4B70AA
:1045F300057902024764AA08AB09A9121227EAE95E
:10460300F50FA2E6401C90157D125BD86014E824D8
:1046130019F582E439F583E064017006E50FD2E60B
:10462300F50F7C067D007900AA18AB1912222C74B1
:104633001F1218A7124FDD6009E054FCF0E044019B
:104643008003E054FC126FBB125BD8602B741E1204
:1046530018A7E0FE88828983A3121311EEFD74026A
:104663001218A7E05403FCAA08AB09A91212278A5F
:104673007402121548E97005790102476474221225
:1046830018A7125BD86012851882851983E0440449
:10469300F074021218A71268F974201218A7124FA7
:1046A300DD6005E044088003E054F7F0742112183C
:1046B300A7124FDD6005E044108003E054EFF0746F
:1046C300241218A7E0C0E074041218A7D0E0F07415
:1046D300051218A7EEF07803851882851983E05434
:1046E300046002780574251218A7124D71E825108D
:1046F300FEE43511FF124A156063AC0AAD0BAA182C
:10470300AB191227C674271218A7125D2F1215169C
:10471300AC10AD11125F97121548750C1E780C1270
:10472300151E750C75750D15780C12151A780A126D
:10473300151A8E0C8F0D780C12151A780812151A8B
:10474300A90FAC14AD15AA16AB17123732740912A0
:104753001548E9FEAA0AAB0B1222F880027E10EE7E
:10476300F974068004EEF974021215487F100212E0
:104773000AEEFCEFFDAA10AB11A90A122790740BE5
:104783002274EA120E5674FE121610890B8A148BC9
:10479300158C0E8D0F7E007F00750A007418121899
:1047A300A7124D7180111249351228208B09EE2A68
:1047B300FEEF3509FF050A1268E0502EE50A75F091
:1047C30006124D282403FEE43FFFA3A3E070E60E88
:1047D300EE70010F88828983A3A3A3A3124944889F
:1047E30082898360C1125B4980C2EEFAEFFB1249F2
:1047F3001F8A0C8B0DEA4B7003024914750A008063
:1048030030A818A91988128913781212151A780872
:1048130012151A8A828B83124935122826740412C0
:104823001548126ED3E50828F508E50939F5090599
:104833000A1268E05077E50A75F006A4F8A9F0E5D6
:104843001028F582E5111268BC12492C8A828B83E9
:10485300A3125574F01255DD12556FF0E5082403C9
:10486300F5085002050988828983E070C2EA2403AF
:10487300081255E112492CA38582088583098A828F
:104883008B83A3A3A3A31249278C82F583E58245D7
:10489300837003024804AC08AD09AA82AB83888203
:1048A3008983E0F91227F68A088B098082780C1233
:1048B300151A8E088F09780812151A74201218A772
:1048C300124D6712151EE4F508F509780812151A3A
:1048D30074221218A7124D6712151E74221218A7FC
:1048E300124D6712151E750800780812151E7508FB
:1048F30001780812151EAC0EAD0FAA14AB15A90B47
:1049030012477E121548E9FEAA0CAB0D1222F8805D
:10491300027E10EEF97402121548802F1222F28AD9
:10492300088B0922E0FCA3E022E085088285098345
:10493300F022126FA9AA0EAB0FA90B22FD8C828D58
:1049430083125DADEA4B22AA12AB137F0E02120A49
:10495300EEF902494E74EC120E56890A8A108B1135
:10496300ECFEEDFF74141218A7124B6B700302498F
:10497300FBA808A9097C00800D124B4E50010B12B5
:104983004B7E5001090C850C82850D83E0FAECC344
:104993009A40E674016A700AA3E07006750E017509
:1049A3000F00780812151A780E12151A741C1218B3
:1049B300A7124B4812151EE4F50CF50D780C1215D1
:1049C3001A741E1218A7124B4812151E741E1218C1
:1049D300A7124B4812151E750B00780B12151E7586
:1049E3000B04780B12151E124774121548E9FEAA20
:1049F30008AB091222F880027E10024B35AA0EABD7
:104A03000F7F0C02120A850A82850B83E0F91228B4
:104A13000822EEFAEFFB1222F28A0A8B0BEA4B22F0
:104A2300F8E4350DF98882F583124D57A3228510DA
:104A330082851183E0F8E508C3982274EC120E56C0
:104A4300890A8A108B11ECFEEDFF74141218A71259
:104A53004B3AF5087509007402780812174F850858
:104A63000E85090FAA0EAB0F1268D47003024B33E5
:104A73007900804AE9F5127513007402781212174F
:104A83004FE50C2512FCE50D3513FD8C82F583A350
:104A930012593C8C828D83A3126086F0EC2403FCB4
:104AA30050010DF5828D83126087A3F08C828D8374
:104AB300126086A3A3F0EA2404FA50010B09850CC3
:104AC30082850D83E0F8E9C39840A9740168700AF0
:104AD300A3E07006750E01750F00780812151A7899
:104AE3000E12151A741C1218A7124B4812151EE445
:104AF300F50CF50D780C12151A741E1218A7124B2B
:104B03004812151E741E1218A7124B4812151E7553
:104B13000B00780B12151E750B07780B12151E125E
:104B23004774121548E9FEAA08AB091222F880025D
:104B33007E10EEF9024A04124B3E22125443850CB6
:104B430082F583E022E0F50B780B22EC75F003A4E9
:104B5300FAABF0E50C2AFAE50D3BFB8A82F58312EA
:104B63004D84F0EA2402FA22124B3E75F003A4F5B9
:104B73000EE5F0F50FAA0E126F4022F5828B831219
:104B83004F39124D7DA3A3F0E82403F82274E812F1
:104B93000E5674FE121610124DCB1218A7124D7139
:104BA3008009EE2402FEE43FFF0508124A31502F2C
:104BB300E50875F00D124D282404FEE43FFFE07074
:104BC300E8A3E070DDEE2405FEE43FFFE82404F5EE
:104BD3000AE439124D4360D1124A09EE2980C61204
:104BE3004A157003024D238A0E8B0F750800801837
:104BF300E50C2409FAE4350DFB8A82124D51124D5E
:104C030079F08C0E8D0F0508124A314003024CC017
:104C1300E50875F00D124D8BAA82AB83124A2CF076
:104C2300E50C2402124A23124DA0A3F0E50E24043E
:104C3300F50E5002050F850C82850D83E070C7E5E4
:104C43000E2402FCE4350FFD850E82850F83A3A895
:104C530082A9838A828B83E07096E50C2404F51283
:104C6300E4350DF513851282124D51F0E50C240540
:104C7300F516E4350DF5178516821262B1124DB59E
:104C83002407F8E4350DF98882124D51124DC3F013
:104C9300E50E2405F50E5002050F85128285138358
:104CA300124D4A7003024C09AC0EAD0FE50C240BF8
:104CB300F582E4350DF583124D5F024C09780A1233
:104CC300151A8E0C8F0D780C12151A74221218A750
:104CD300124D6712151EE4F50CF50D780C12151A1A
:104CE30074241218A7124D6712151E74241218A7E4
:104CF300124D6712151E750800780812151E7508E7
:104D030009780812151EAC14AD15740B1218A712EE
:104D13004D38121548E9FEAA0AAB0B1222F880029D
:104D23007E10024768A4F8A9F0E51028F582E51182
:104D3300124ED5EE22125DADA909122790740B22F3
:104D4300F50B850A82F583E0F91227FCE922F58346
:104D5300124D5722E0850E82850F8322124F3E8A21
:104D63000E8B0F22E0F5087808228E828F83E0F500
:104D730010A3E0F51122124D7D221242E5124D845B
:104D830022A3E08882898322126A6E85820C85833E
:104D93000D124D57F0850C82850D83A322124DA46D
:104DA30022A3F088828983A3E0850E82850F83A3E3
:104DB300A322F08516828517831255F2F0E50C22A3
:104DC300A3A3124DA4A3A322851882851983EAF015
:104DD300A3EBF089098C148D157E007F0075080004
:104DE300741A2274EA120E56890B8A108B118C0ED8
:104DF3008D0F7E007F00750A0074161218A71254D7
:104E03003F8003124EA2850C82850D831268E64013
:104E1300F21268D0607EA808A909750A00800312FF
:104E23004EDE850C82850D83E0FAE50AC39A40EFD6
:104E3300780812151A8E0C8F0D780C12151A741E21
:104E43001218A7124E9C12151EE4F50CF50D780CE2
:104E530012151A74201218A7124E9C12151E7420D4
:104E63001218A7124E9C12151E750A00780A121505
:104E73001E750A0A780A12151EAC0EAD0FAA10ABE6
:104E830011A90B12477E121548E9FEAA08AB0912B5
:104E930022F880027E10024953E0F50A780A22E5DF
:104EA3000A75F005A4F8A9F0E50C28F582E50D12C2
:104EB3004ED5A3A3A3126EE7A3A3E0F912280E8B8A
:104EC30009EA2403F8E43509F9EE28FEEF39FF0572
:104ED3000A2239F583A3A882A98322E50A75F0057E
:104EE300A4FAABF0124F2D858214858315124D85DC
:104EF300126FC1124F39F0E5142402FAE435158A12
:104F030012F5138A82F583124F39A3F0E82403FCC8
:104F1300E439FD851482851583A3A3A3124F3E8A2A
:104F2300128B13A812A913050A22E50C2AF582E5B0
:104F33000D3BF583A322124D85A322E0FAA3E0FBE8
:104F4300851282851383E0F91227F62274F6120E76
:104F53005674FE121610E9FE740C1218A7124FD5E0
:104F6300124FDD124FE5E0C0E074011218A7D0E044
:104F7300F0A818A91988088909780812151A75085C
:104F830002750900780812151A74161218A7124D23
:104F93006712151E74151218A7121311741612181E
:104FA300A7124D6712151E74161218A7124D671219
:104FB300151E750800780812151E75080B7808125F
:104FC300151EEEF912477E12154874021215480297
:104FD3005710126EDE8882F58322E08518828519C8
:104FE3008322F088828983A32274F1120E5674EB14
:104FF300121610EAFEEBFFC200EA2420F8E43F8811
:1050030008F5098882F583C3E09403A3E094005074
:1050130005790102542090157D126FD7740212187E
:10502300A7126FD7740E1218A7E4F0A3F0740A1234
:1050330018A7E4F0A3F0740C1218A7E4F0A3F0EAA5
:105043002422F8E43F880AF50B8882F5831268DC92
:1050530074041218A7AA82AB831227C08A0C8B0D83
:10506300A80CA90D740A1218A7126FD78508828598
:105073000983125DA9EAC398F8EB99F9850A828539
:105083000B83E028F8A3E039F9740C1218A712680F
:10509300F974081218A7E0901576F0EE2414F508B9
:1050A300E43FF509850882F583E0F91237268A8201
:1050B3008B83E5824583700C90157DE4F0A3F07932
:1050C30002025420125473602BEE2404F50AE43FC9
:1050D300F50BA3121311740B1218A7E0FD7406123B
:1050E30018A7E05403FC12548212278A7402121583
:1050F30048E9700C90157DE4F0A3F0790302542085
:105103001254821227EAE9F50E850A82850B83126F
:105113005DA9EAFCEBFD90157780048882898312F0
:105123005BD8700302521388828983A3A312543F6E
:10513300C3EA950CEB950D40E288828983A3A3A370
:10514300A3C3E09CA3E09D40D2E8FCE9FD740412F4
:1051530018A7E05407700D74091218A7E0640B70C8
:1051630003025217E50EA2E64003025217EE24197A
:10517300F582E43FF583E0600302521774021218CC
:10518300A712544B707E74021218A7125BD370746B
:105193007C00850882850983E0F91227F0740112E7
:1051A30018A77401F074091218A71254281218A72B
:1051B300E0F50C780C12151E74071218A7121311C0
:1051C300750C01780C12151E74081218A7126A8E3A
:1051D300F50C780C12151E74051215CA880C890D6E
:1051E300780C12151A74091218A712546A1218A708
:1051F3001254331218A71254591215487C01125431
:10520300821227F090157DE4F0A3F0790502542073
:105213007C007D0074041218A7E0F85403600302B5
:10522300533BE8540460057E8402537A74091218D0
:10523300A7E0F8C394174003025337E8F50A750B48
:10524300007402780A12174F740E250AF58274400F
:10525300350BF583E493F8740193F9E8497003027D
:105263005337850882850983E0C0E074101218A7BC
:10527300D0E0F0740C1218A7125DA974111218A7CC
:10528300126FD7740A1218A7125DA974131218A704
:10529300126FD774101215D28882898312379D8BAF
:1052A30009A909740E1218A7126FD7EA49604B7443
:1052B300091218A7E0F50875090074027808121797
:1052C3004F74102508F58274403509F583E493F88B
:1052D3007401938882F583E5824583601274021218
:1052E30015D212379D740E1218A7125BD8600B7477
:1052F3000E1218A7125DA91222F874091218A7E05A
:10530300F86054740268604F740368604A740668F6
:1053130060457408686040740C68603B7411686091
:10532300367413686031741568602C740B686027D9
:105333007E0080437E82803FEC4D602B8C828D8388
:10534300A3A3A3125473601F74021215D212379DC4
:10535300E9FE74FF6E700B90157DE4F0A3F0F90283
:10536300542074016E701074041218A7E054046082
:10537300047E8380027E8174021218A712544B703C
:105383007574021218A7125BD3706B74041218A7FA
:10539300E0FA5410706074011218A7EEF074091249
:1053A30018A71254281218A7124D6712151E740756
:1053B3001218A7121311750801780812151EEA13A3
:1053C3001313541F64015401F508780812151E7451
:1053D300051215CA88088909780812151A74091262
:1053E30018A712546A1218A71254331218A712548A
:1053F30059121548D20090157DE4F0A3F0EE700425
:105403007900801974846EA200700A5004790780B1
:105413000C79068008500479098002790874151202
:105423001548025B43E0851882851983F0740822CE
:10543300E02406FAA3E03400FB7409221254432249
:10544300E0F50CA3E0F50D22125E43C82415F582A6
:10545300E438F583E022A3E0C8126B9438F583E0C7
:10546300F91227B4740722126E85126FA5740922EC
:10547300A3A3A3125E438882F583E5824583228535
:105483000A82850B83125DAD850882850983E0F965
:105493002274F4120E568A088B09ECFEEDFF7C068B
:1054A3007D00790012222C850882850983E054FC53
:1054B300F8A3E0F98E828F83E05403FAE84A850863
:1054C30082850983F0A3E912557DA2E25004D2F04C
:1054D3008002C2F0850882850983E054FBF0A2F0C4
:1054E300E433F50A750B007402780A12174FE0458E
:1054F3000A12557DA2E3850882850983E05004449E
:1055030008800254F712557DA2E45004D2F08002C1
:10551300C2F0850882850983E054EFF0A2F0E433FA
:10552300F50A7404780A12174FE0450A125F9D8545
:105533000882850983E0540460108E828F83E0FA29
:10554300A3E0F9EA12652B50010F8E828F83125567
:105553006FA3A312650B850882850983A3A3A3A365
:10556300A3F0EE2402FAE43FFB0245C9125574A3EB
:1055730022E0850882850983A322125945E022741B
:10558300F7120E568A828B83E054038C828D83122A
:10559300560054041255F954081255F95410F88C56
:1055A300828D83E048F0A3AC82AD838A828B83E053
:1055B300540460101255DD1255F3124FE51255E9EC
:1055C300FC50010D8A828B83A3A3A31255F21256BA
:1055D300051255E9FAE43DFB803EEA2402F8E43B78
:1055E300F98882F583221255F3A3F0EC240222A357
:1055F300E08C828D8322F88C828D83E0481242E511
:10560300E0221256092212560EA322F08A828B83BD
:10561300A3A3A3A32212275A7F0102120AC082C0A6
:105623008390157980048A828B8312494460138A9C
:10563300828B83A3A3E0F8E968600B74FF6870E6CC
:1056430080047A007B000243F774F0120E568A0836
:105653008B09ECFEEDFF1227CC8A0C8B0DEA4B6015
:10566300787C0080010C850C82850D83A3A3A3A302
:10567300A3A3A3E0F8ECC398505FECF50E750F00FD
:105683007403780E12174F850C82850D83A3A3A391
:10569300A3A3A3A3A3E0250EF8A3E0350FF9888203
:1056A300F583E493FA740193FBE5086A7003E50953
:1056B3006B70B2A3A3E493FA740193FBEE6A7002D6
:1056C300EF6B70A174101218A71268DC89838882AB
:1056D30074081214127901800279008003121548AC
:1056E3007F0802120A74F6120E561257156005123D
:1056F3005DA680047A007B00801374F6120E5612A6
:1057030057156005125DA480047A007B007F0202B6
:10571300120A1227CC8A828B83E58245832274F78F
:10572300120E56E9FFEAFCEBFD90157B800488829C
:105733008983125BD8604688828983A3A3E06F7054
:10574300ED7E0080010E88828983A3A3A3E0FAEE95
:10575300C39A50DAEE75F003A4FA85F008AB088813
:10576300828983A3A3A3A3E02AFAA3E03BFB8A8253
:10577300F583E06C7003A3E06D70CA80047A007B4C
:105783000002561B74F6120E561227E48A828B838C
:10579300E58245836006A3A3E0F9800279000257FE
:1057A3001074F6120E56ECFF1227E48B09A909EACE
:1057B300496015EA2402F582E439F583EF6005E0D8
:1057C300D2E68003E0C2E6F002571074F1120E56DF
:1057D300EAFEEBFFECFAEDFBEE4F7003025939ECF6
:1057E3002402F50CE43BF50D8C828D83A3AC82ADD2
:1057F300838E088F09750A00E91213C20441420619
:105803005943441859E0E2D158E8E984582108760D
:10581300580984580A93580BD1581076581876585B
:105823001984581A93581BD158207658218458222A
:10583300935823D15824E25825EB5826F45827FDD2
:10584300582876582984582A93582BD1582CE25833
:105853002DEB582EF4582FFD583076583184583894
:10586300845839D1583AFD58EAD158F0FD58F12AF5
:105873005939598E828F8312593CECFAEDFB025948
:10588300391265048C828D83F00A0AAB0D025939F3
:105893008E828F8378081218388A828B83E50812E8
:1058A30059417808121838E5098C828D83125941C1
:1058B3007808121838741078081215B1850C82858F
:1058C3000D83E508F0EA2403FA506B0B80688E829F
:1058D3008F8312130D1222AA74041215488057786D
:1058E300081215167C05804678081215167C06806A
:1058F3003D78081215167C07803478081215167C3B
:1059030008802B78081215168E828F83E02401FC01
:10591300E43400800F78081215168E828F83125A92
:10592300D7FCE439FD800978081215167C107D0038
:10593300125F97121548025B4312608CF0221259D2
:105943004522F08E828F8322C082C083E91213C264
:1059530003202F6359383A6359E0E26359006759CA
:105963007901800279000243F774F2120E5674FE35
:10597300121610EAFEEBFF8C088D0912280E85180B
:10598300828519837401F0A3E4F085188285198355
:10599300E0600C750C01750D007800790080387596
:1059A3000CFF750DFFEA24FFF8EB34FF8028850810
:1059B30082850983E0C0E0EE28F582EF39F583D0D4
:1059C300E0F0850882850983A3858208858309E839
:1059D300250CF8E9350DF9EAFCEBFDEC24FF1AED93
:1059E30034FFFBEC4D70C77402121548025D9FE94A
:1059F30024F8607814607914607A14607B24FB6067
:105A03006B24F8606714606814606914606A24FB8F
:105A1300605A14605B14605C14605D14605E146013
:105A23005F14606014606114604214604314604446
:105A330014604514604614604714604814604914A8
:105A4300602A14602B24F9602714602C1460392415
:105A53005A602514602214601F24FA601314601026
:105A630014601524FA6021146022802479018022B5
:105A73007902801E7903801A7904801679058012D1
:105A83007906800E7907800A7908800679108002EA
:105A930079000214FA74F7120E56E9FE74446E602C
:105AA3000574436E700C8A828B83125AD7FAE439D9
:105AB300801574426E600574416E700E8A828B830A
:105AC300E02401FAE43400FB8007122808E9FA7B9A
:105AD3000002561B124927F9EC24022274F1120E1C
:105AE30056EAFEEBFFEC2406F8E43D8808F5098846
:105AF30082F5831249447004790180448C828D833A
:105B0300125B488A0A8B0B850882850983E0F508B6
